{
  "contractName": "PagareVirtual",
  "abi": [
    {
      "inputs": [],
      "payable": false,
      "stateMutability": "nonpayable",
      "type": "constructor"
    },
    {
      "anonymous": false,
      "inputs": [
        {
          "indexed": false,
          "internalType": "address",
          "name": "from",
          "type": "address"
        },
        {
          "indexed": false,
          "internalType": "address",
          "name": "to",
          "type": "address"
        },
        {
          "indexed": false,
          "internalType": "uint256",
          "name": "_id",
          "type": "uint256"
        },
        {
          "indexed": false,
          "internalType": "uint256",
          "name": "id_endoso",
          "type": "uint256"
        }
      ],
      "name": "AcceptEndoso",
      "type": "event"
    },
    {
      "anonymous": false,
      "inputs": [
        {
          "indexed": false,
          "internalType": "uint256",
          "name": "_id",
          "type": "uint256"
        },
        {
          "indexed": false,
          "internalType": "address",
          "name": "deudor_id",
          "type": "address"
        },
        {
          "indexed": false,
          "internalType": "address",
          "name": "acreedor_id",
          "type": "address"
        },
        {
          "indexed": false,
          "internalType": "uint256",
          "name": "valor",
          "type": "uint256"
        }
      ],
      "name": "PagareCreate",
      "type": "event"
    },
    {
      "anonymous": false,
      "inputs": [
        {
          "indexed": false,
          "internalType": "string",
          "name": "_id",
          "type": "string"
        },
        {
          "indexed": false,
          "internalType": "string",
          "name": "message",
          "type": "string"
        }
      ],
      "name": "RejectCreate",
      "type": "event"
    },
    {
      "anonymous": false,
      "inputs": [
        {
          "indexed": false,
          "internalType": "string",
          "name": "from",
          "type": "string"
        },
        {
          "indexed": false,
          "internalType": "string",
          "name": "to",
          "type": "string"
        },
        {
          "indexed": false,
          "internalType": "string",
          "name": "_id",
          "type": "string"
        },
        {
          "indexed": false,
          "internalType": "string",
          "name": "message",
          "type": "string"
        }
      ],
      "name": "RejectEndoso",
      "type": "event"
    },
    {
      "constant": false,
      "inputs": [
        {
          "internalType": "string",
          "name": "serial",
          "type": "string"
        }
      ],
      "name": "setId",
      "outputs": [],
      "payable": false,
      "stateMutability": "nonpayable",
      "type": "function"
    },
    {
      "constant": true,
      "inputs": [],
      "name": "getId",
      "outputs": [
        {
          "internalType": "string",
          "name": "",
          "type": "string"
        }
      ],
      "payable": false,
      "stateMutability": "view",
      "type": "function"
    },
    {
      "constant": false,
      "inputs": [
        {
          "internalType": "address",
          "name": "id_deudor",
          "type": "address"
        },
        {
          "internalType": "string",
          "name": "info",
          "type": "string"
        },
        {
          "internalType": "uint256",
          "name": "fecha_creacion",
          "type": "uint256"
        },
        {
          "internalType": "uint256",
          "name": "fecha_vencimiento",
          "type": "uint256"
        }
      ],
      "name": "createPagare",
      "outputs": [],
      "payable": true,
      "stateMutability": "payable",
      "type": "function"
    },
    {
      "constant": false,
      "inputs": [
        {
          "internalType": "uint256",
          "name": "_id",
          "type": "uint256"
        }
      ],
      "name": "firmarPagare",
      "outputs": [],
      "payable": false,
      "stateMutability": "nonpayable",
      "type": "function"
    },
    {
      "constant": false,
      "inputs": [
        {
          "internalType": "address",
          "name": "id_endosatario",
          "type": "address"
        },
        {
          "internalType": "uint256",
          "name": "id_pagare",
          "type": "uint256"
        },
        {
          "internalType": "uint256",
          "name": "fecha",
          "type": "uint256"
        }
      ],
      "name": "endosarPagare",
      "outputs": [],
      "payable": false,
      "stateMutability": "nonpayable",
      "type": "function"
    },
    {
      "constant": true,
      "inputs": [
        {
          "internalType": "uint256",
          "name": "_id",
          "type": "uint256"
        }
      ],
      "name": "getPagareById",
      "outputs": [
        {
          "internalType": "uint256",
          "name": "",
          "type": "uint256"
        },
        {
          "internalType": "address",
          "name": "",
          "type": "address"
        },
        {
          "internalType": "address",
          "name": "",
          "type": "address"
        },
        {
          "internalType": "string",
          "name": "",
          "type": "string"
        },
        {
          "internalType": "bool",
          "name": "",
          "type": "bool"
        },
        {
          "internalType": "uint256",
          "name": "",
          "type": "uint256"
        },
        {
          "internalType": "uint256",
          "name": "",
          "type": "uint256"
        }
      ],
      "payable": false,
      "stateMutability": "view",
      "type": "function"
    },
    {
      "constant": true,
      "inputs": [
        {
          "internalType": "uint256",
          "name": "_id",
          "type": "uint256"
        }
      ],
      "name": "getEndosoById",
      "outputs": [
        {
          "internalType": "uint256",
          "name": "",
          "type": "uint256"
        },
        {
          "internalType": "uint256",
          "name": "",
          "type": "uint256"
        },
        {
          "internalType": "address",
          "name": "",
          "type": "address"
        },
        {
          "internalType": "address",
          "name": "",
          "type": "address"
        },
        {
          "internalType": "uint256",
          "name": "",
          "type": "uint256"
        },
        {
          "internalType": "uint256",
          "name": "",
          "type": "uint256"
        },
        {
          "internalType": "bool",
          "name": "",
          "type": "bool"
        }
      ],
      "payable": false,
      "stateMutability": "view",
      "type": "function"
    },
    {
      "constant": true,
      "inputs": [
        {
          "internalType": "address",
          "name": "owner",
          "type": "address"
        },
        {
          "internalType": "uint256",
          "name": "_id",
          "type": "uint256"
        }
      ],
      "name": "esAcreedorDe",
      "outputs": [
        {
          "internalType": "bool",
          "name": "",
          "type": "bool"
        }
      ],
      "payable": false,
      "stateMutability": "view",
      "type": "function"
    },
    {
      "constant": true,
      "inputs": [
        {
          "internalType": "address",
          "name": "owner",
          "type": "address"
        },
        {
          "internalType": "uint256",
          "name": "_id",
          "type": "uint256"
        }
      ],
      "name": "esDeudorDe",
      "outputs": [
        {
          "internalType": "bool",
          "name": "",
          "type": "bool"
        }
      ],
      "payable": false,
      "stateMutability": "view",
      "type": "function"
    },
    {
      "constant": true,
      "inputs": [
        {
          "internalType": "address",
          "name": "deudor",
          "type": "address"
        }
      ],
      "name": "getIdPagaresDeudor",
      "outputs": [
        {
          "internalType": "uint256[]",
          "name": "",
          "type": "uint256[]"
        }
      ],
      "payable": false,
      "stateMutability": "view",
      "type": "function"
    },
    {
      "constant": true,
      "inputs": [
        {
          "internalType": "address",
          "name": "acreedor",
          "type": "address"
        }
      ],
      "name": "getIdPagaresAcreedor",
      "outputs": [
        {
          "internalType": "uint256[]",
          "name": "",
          "type": "uint256[]"
        }
      ],
      "payable": false,
      "stateMutability": "view",
      "type": "function"
    },
    {
      "constant": false,
      "inputs": [
        {
          "internalType": "uint256",
          "name": "_id",
          "type": "uint256"
        }
      ],
      "name": "devolverDinero",
      "outputs": [],
      "payable": false,
      "stateMutability": "nonpayable",
      "type": "function"
    },
    {
      "constant": true,
      "inputs": [
        {
          "internalType": "uint256",
          "name": "_id",
          "type": "uint256"
        }
      ],
      "name": "getEndososPagare",
      "outputs": [
        {
          "internalType": "uint256[]",
          "name": "",
          "type": "uint256[]"
        }
      ],
      "payable": false,
      "stateMutability": "view",
      "type": "function"
    }
  ],
  "bytecode": "0x60806040526040518060400160405280600481526020017f6363636300000000000000000000000000000000000000000000000000000000815250600090805190602001906200005192919062000076565b503480156200005f57600080fd5b506000600181905550600160028190555062000125565b828054600181600116156101000203166002900490600052602060002090601f016020900481019282601f10620000b957805160ff1916838001178555620000ea565b82800160010185558215620000ea579182015b82811115620000e9578251825591602001919060010190620000cc565b5b509050620000f99190620000fd565b5090565b6200012291905b808211156200011e57600081600090555060010162000104565b5090565b90565b6121e280620001356000396000f3fe6080604052600436106100c25760003560e01c806343978bea1161007f5780638abb046e116100595780638abb046e1461062657806390cc79831461069957806396d57f1d1461073f578063dd6ede0114610814576100c2565b806343978bea146103945780635d1ca631146104ce57806387e4396c1461055e576100c2565b80630ba45024146100c75780630d8bd23c146101b6578063175ce94014610246578063263e1afc1461028157806326fe1ded146102e65780633d7fc44014610359575b600080fd5b6101b4600480360360808110156100dd57600080fd5b81019080803573ffffffffffffffffffffffffffffffffffffffff1690602001909291908035906020019064010000000081111561011a57600080fd5b82018360208201111561012c57600080fd5b8035906020019184600183028401116401000000008311171561014e57600080fd5b91908080601f016020809104026020016040519081016040528093929190818152602001838380828437600081840152601f19601f82011690508083019250505050505050919291929080359060200190929190803590602001909291905050506108ba565b005b3480156101c257600080fd5b506101ef600480360360208110156101d957600080fd5b8101908080359060200190929190505050610c9f565b6040518080602001828103825283818151815260200191508051906020019060200280838360005b83811015610232578082015181840152602081019050610217565b505050509050019250505060405180910390f35b34801561025257600080fd5b5061027f6004803603602081101561026957600080fd5b8101908080359060200190929190505050610d97565b005b34801561028d57600080fd5b506102e4600480360360608110156102a457600080fd5b81019080803573ffffffffffffffffffffffffffffffffffffffff1690602001909291908035906020019092919080359060200190929190505050610fac565b005b3480156102f257600080fd5b5061033f6004803603604081101561030957600080fd5b81019080803573ffffffffffffffffffffffffffffffffffffffff1690602001909291908035906020019092919050505061143a565b604051808215151515815260200191505060405180910390f35b34801561036557600080fd5b506103926004803603602081101561037c57600080fd5b81019080803590602001909291905050506114b3565b005b3480156103a057600080fd5b506103cd600480360360208110156103b757600080fd5b81019080803590602001909291905050506119b2565b604051808881526020018773ffffffffffffffffffffffffffffffffffffffff1673ffffffffffffffffffffffffffffffffffffffff1681526020018673ffffffffffffffffffffffffffffffffffffffff1673ffffffffffffffffffffffffffffffffffffffff1681526020018060200185151515158152602001848152602001838152602001828103825286818151815260200191508051906020019080838360005b8381101561048d578082015181840152602081019050610472565b50505050905090810190601f1680156104ba5780820380516001836020036101000a031916815260200191505b509850505050505050505060405180910390f35b3480156104da57600080fd5b506104e3611b60565b6040518080602001828103825283818151815260200191508051906020019080838360005b83811015610523578082015181840152602081019050610508565b50505050905090810190601f1680156105505780820380516001836020036101000a031916815260200191505b509250505060405180910390f35b34801561056a57600080fd5b506106246004803603602081101561058157600080fd5b810190808035906020019064010000000081111561059e57600080fd5b8201836020820111156105b057600080fd5b803590602001918460018302840111640100000000831117156105d257600080fd5b91908080601f016020809104026020016040519081016040528093929190818152602001838380828437600081840152601f19601f820116905080830192505050505050509192919290505050611c02565b005b34801561063257600080fd5b5061067f6004803603604081101561064957600080fd5b81019080803573ffffffffffffffffffffffffffffffffffffffff16906020019092919080359060200190929190505050611c1c565b604051808215151515815260200191505060405180910390f35b3480156106a557600080fd5b506106e8600480360360208110156106bc57600080fd5b81019080803573ffffffffffffffffffffffffffffffffffffffff169060200190929190505050611c95565b6040518080602001828103825283818151815260200191508051906020019060200280838360005b8381101561072b578082015181840152602081019050610710565b505050509050019250505060405180910390f35b34801561074b57600080fd5b506107786004803603602081101561076257600080fd5b8101908080359060200190929190505050611dd1565b604051808881526020018781526020018673ffffffffffffffffffffffffffffffffffffffff1673ffffffffffffffffffffffffffffffffffffffff1681526020018573ffffffffffffffffffffffffffffffffffffffff1673ffffffffffffffffffffffffffffffffffffffff1681526020018481526020018381526020018215151515815260200197505050505050505060405180910390f35b34801561082057600080fd5b506108636004803603602081101561083757600080fd5b81019080803573ffffffffffffffffffffffffffffffffffffffff169060200190929190505050611ee3565b6040518080602001828103825283818151815260200191508051906020019060200280838360005b838110156108a657808201518184015260208101905061088b565b505050509050019250505060405180910390f35b600060015490506001600081548092919060010191905055506040518061014001604052808281526020013481526020018673ffffffffffffffffffffffffffffffffffffffff1681526020013373ffffffffffffffffffffffffffffffffffffffff168152602001858152602001600015158152602001600081526020018481526020018381526020016000151581525060056000838152602001908152602001600020600082015181600001556020820151816001015560408201518160020160006101000a81548173ffffffffffffffffffffffffffffffffffffffff021916908373ffffffffffffffffffffffffffffffffffffffff16021790555060608201518160030160006101000a81548173ffffffffffffffffffffffffffffffffffffffff021916908373ffffffffffffffffffffffffffffffffffffffff1602179055506080820151816004019080519060200190610a1d929190611fcb565b5060a08201518160050160006101000a81548160ff02191690831515021790555060c0820151816006015560e0820151816007015561010082015181600801556101208201518160090160006101000a81548160ff0219169083151502179055509050506001600760003373ffffffffffffffffffffffffffffffffffffffff1673ffffffffffffffffffffffffffffffffffffffff168152602001908152602001600020600083815260200190815260200160002060006101000a81548160ff0219169083151502179055506001600860008773ffffffffffffffffffffffffffffffffffffffff1673ffffffffffffffffffffffffffffffffffffffff168152602001908152602001600020600083815260200190815260200160002060006101000a81548160ff021916908315150217905550600360008673ffffffffffffffffffffffffffffffffffffffff1673ffffffffffffffffffffffffffffffffffffffff16815260200190815260200160002060008154809291906001019190505550600460003373ffffffffffffffffffffffffffffffffffffffff1673ffffffffffffffffffffffffffffffffffffffff168152602001908152602001600020600081548092919060010191905055507f47343275cdbb7ab7c8d6d7245028c9b8cd71c759074d17235c75c3f6a7af519681863334604051808581526020018473ffffffffffffffffffffffffffffffffffffffff1673ffffffffffffffffffffffffffffffffffffffff1681526020018373ffffffffffffffffffffffffffffffffffffffff1673ffffffffffffffffffffffffffffffffffffffff16815260200182815260200194505050505060405180910390a15050505050565b606060008090506000600560008581526020019081526020016000206006015490505b6000811115610cf157818060010192505060066000828152602001908152602001600020600101549050610cc2565b606082604051908082528060200260200182016040528015610d225781602001602082028038833980820191505090505b5090506005600086815260200190815260200160002060060154915060008090505b83811015610d8b5782828281518110610d5957fe5b602002602001018181525050600660008481526020019081526020016000206001015492508080600101915050610d44565b50809350505050919050565b6005600082815260200190815260200160002060020160009054906101000a900473ffffffffffffffffffffffffffffffffffffffff1673ffffffffffffffffffffffffffffffffffffffff163373ffffffffffffffffffffffffffffffffffffffff1614610e51576040517f08c379a000000000000000000000000000000000000000000000000000000000815260040180806020018281038252603481526020018061217a6034913960400191505060405180910390fd5b600015156005600083815260200190815260200160002060050160009054906101000a900460ff16151514610eee576040517f08c379a00000000000000000000000000000000000000000000000000000000081526004018080602001828103825260198152602001807f456c207061676172652079612065737461206669726d61646f0000000000000081525060200191505060405180910390fd5b3373ffffffffffffffffffffffffffffffffffffffff166108fc60056000848152602001908152602001600020600101549081150290604051600060405180830381858888f19350505050158015610f4a573d6000803e3d6000fd5b5060016005600083815260200190815260200160002060050160006101000a81548160ff02191690831515021790555060016005600083815260200190815260200160002060090160006101000a81548160ff02191690831515021790555050565b600033905060006002549050600260008154809291906001019190505550600760003373ffffffffffffffffffffffffffffffffffffffff1673ffffffffffffffffffffffffffffffffffffffff168152602001908152602001600020600085815260200190815260200160002060009054906101000a900460ff1661107d576040517f08c379a000000000000000000000000000000000000000000000000000000000815260040180806020018281038252603181526020018061211e6031913960400191505060405180910390fd5b6005600085815260200190815260200160002060090160009054906101000a900460ff166110f6576040517f08c379a000000000000000000000000000000000000000000000000000000000815260040180806020018281038252602d8152602001806120f1602d913960400191505060405180910390fd5b6040518060e00160405280828152602001600560008781526020019081526020016000206006015481526020018373ffffffffffffffffffffffffffffffffffffffff1681526020018673ffffffffffffffffffffffffffffffffffffffff1681526020018581526020018481526020016001151581525060066000838152602001908152602001600020600082015181600001556020820151816001015560408201518160020160006101000a81548173ffffffffffffffffffffffffffffffffffffffff021916908373ffffffffffffffffffffffffffffffffffffffff16021790555060608201518160030160006101000a81548173ffffffffffffffffffffffffffffffffffffffff021916908373ffffffffffffffffffffffffffffffffffffffff1602179055506080820151816004015560a0820151816005015560c08201518160060160006101000a81548160ff0219169083151502179055509050506000600660006005600088815260200190815260200160002060060154815260200190815260200160002060060160006101000a81548160ff0219169083151502179055508060056000868152602001908152602001600020600601819055506000600760008473ffffffffffffffffffffffffffffffffffffffff1673ffffffffffffffffffffffffffffffffffffffff168152602001908152602001600020600086815260200190815260200160002060006101000a81548160ff0219169083151502179055506001600760008773ffffffffffffffffffffffffffffffffffffffff1673ffffffffffffffffffffffffffffffffffffffff168152602001908152602001600020600086815260200190815260200160002060006101000a81548160ff0219169083151502179055507f95dad5e2a72b4e292043b9015fb9601631dba16fdf266eec6f9739be09ae795982868684604051808573ffffffffffffffffffffffffffffffffffffffff1673ffffffffffffffffffffffffffffffffffffffff1681526020018473ffffffffffffffffffffffffffffffffffffffff1673ffffffffffffffffffffffffffffffffffffffff16815260200183815260200182815260200194505050505060405180910390a15050505050565b6000600860008473ffffffffffffffffffffffffffffffffffffffff1673ffffffffffffffffffffffffffffffffffffffff168152602001908152602001600020600083815260200190815260200160002060009054906101000a900460ff16156114a857600190506114ad565b600090505b92915050565b6005600082815260200190815260200160002060030160009054906101000a900473ffffffffffffffffffffffffffffffffffffffff1673ffffffffffffffffffffffffffffffffffffffff163373ffffffffffffffffffffffffffffffffffffffff161461156d576040517f08c379a000000000000000000000000000000000000000000000000000000000815260040180806020018281038252602b81526020018061214f602b913960400191505060405180910390fd5b600015156005600083815260200190815260200160002060050160009054906101000a900460ff1615151461160a576040517f08c379a00000000000000000000000000000000000000000000000000000000081526004018080602001828103825260188152602001807f596120667565206669726d61646f20656c20706167617265000000000000000081525060200191505060405180910390fd5b6000429050600060056000848152602001908152602001600020600701548203905060006202a30090508082116116a9576040517f08c379a00000000000000000000000000000000000000000000000000000000081526004018080602001828103825260188152602001807f4e6f2068616e2070617361646f203220646961732061756e000000000000000081525060200191505060405180910390fd5b6000600860006005600088815260200190815260200160002060020160009054906101000a900473ffffffffffffffffffffffffffffffffffffffff1673ffffffffffffffffffffffffffffffffffffffff1673ffffffffffffffffffffffffffffffffffffffff168152602001908152602001600020600086815260200190815260200160002060006101000a81548160ff0219169083151502179055506000600760003373ffffffffffffffffffffffffffffffffffffffff1673ffffffffffffffffffffffffffffffffffffffff168152602001908152602001600020600086815260200190815260200160002060006101000a81548160ff021916908315150217905550600360006005600087815260200190815260200160002060020160009054906101000a900473ffffffffffffffffffffffffffffffffffffffff1673ffffffffffffffffffffffffffffffffffffffff1673ffffffffffffffffffffffffffffffffffffffff1681526020019081526020016000206000815480929190600190039190505550600460003373ffffffffffffffffffffffffffffffffffffffff1673ffffffffffffffffffffffffffffffffffffffff168152602001908152602001600020600081548092919060019003919050555060006005600086815260200190815260200160002060020160006101000a81548173ffffffffffffffffffffffffffffffffffffffff021916908373ffffffffffffffffffffffffffffffffffffffff16021790555060006005600086815260200190815260200160002060030160006101000a81548173ffffffffffffffffffffffffffffffffffffffff021916908373ffffffffffffffffffffffffffffffffffffffff1602179055503373ffffffffffffffffffffffffffffffffffffffff166108fc60056000878152602001908152602001600020600101549081150290604051600060405180830381858888f1935050505015801561198f573d6000803e3d6000fd5b506000600560008681526020019081526020016000206001018190555050505050565b6000806000606060008060006005600089815260200190815260200160002060010154600560008a815260200190815260200160002060020160009054906101000a900473ffffffffffffffffffffffffffffffffffffffff16600560008b815260200190815260200160002060030160009054906101000a900473ffffffffffffffffffffffffffffffffffffffff16600560008c8152602001908152602001600020600401600560008d815260200190815260200160002060050160009054906101000a900460ff16600560008e815260200190815260200160002060070154600560008f815260200190815260200160002060080154838054600181600116156101000203166002900480601f016020809104026020016040519081016040528092919081815260200182805460018160011615610100020316600290048015611b405780601f10611b1557610100808354040283529160200191611b40565b820191906000526020600020905b815481529060010190602001808311611b2357829003601f168201915b505050505093509650965096509650965096509650919395979092949650565b606060008054600181600116156101000203166002900480601f016020809104026020016040519081016040528092919081815260200182805460018160011615610100020316600290048015611bf85780601f10611bcd57610100808354040283529160200191611bf8565b820191906000526020600020905b815481529060010190602001808311611bdb57829003601f168201915b5050505050905090565b8060009080519060200190611c1892919061204b565b5050565b6000600760008473ffffffffffffffffffffffffffffffffffffffff1673ffffffffffffffffffffffffffffffffffffffff168152602001908152602001600020600083815260200190815260200160002060009054906101000a900460ff1615611c8a5760019050611c8f565b600090505b92915050565b606080600360008473ffffffffffffffffffffffffffffffffffffffff1673ffffffffffffffffffffffffffffffffffffffff16815260200190815260200160002054604051908082528060200260200182016040528015611d065781602001602082028038833980820191505090505b509050600080905060008090505b600154811015611dc657600860008673ffffffffffffffffffffffffffffffffffffffff1673ffffffffffffffffffffffffffffffffffffffff168152602001908152602001600020600082815260200190815260200160002060009054906101000a900460ff1615611db9576005600082815260200190815260200160002060000154838381518110611da457fe5b60200260200101818152505081806001019250505b8080600101915050611d14565b508192505050919050565b60008060008060008060006006600089815260200190815260200160002060000154600660008a815260200190815260200160002060010154600660008b815260200190815260200160002060020160009054906101000a900473ffffffffffffffffffffffffffffffffffffffff16600660008c815260200190815260200160002060030160009054906101000a900473ffffffffffffffffffffffffffffffffffffffff16600660008d815260200190815260200160002060040154600660008e815260200190815260200160002060050154600660008f815260200190815260200160002060060160009054906101000a900460ff169650965096509650965096509650919395979092949650565b606080600460008473ffffffffffffffffffffffffffffffffffffffff1673ffffffffffffffffffffffffffffffffffffffff16815260200190815260200160002054604051908082528060200260200182016040528015611f545781602001602082028038833980820191505090505b509050600080905060008090505b600154811015611fc057611f768582611c1c565b15611fb3576005600082815260200190815260200160002060000154838381518110611f9e57fe5b60200260200101818152505081806001019250505b8080600101915050611f62565b508192505050919050565b828054600181600116156101000203166002900490600052602060002090601f016020900481019282601f1061200c57805160ff191683800117855561203a565b8280016001018555821561203a579182015b8281111561203957825182559160200191906001019061201e565b5b50905061204791906120cb565b5090565b828054600181600116156101000203166002900490600052602060002090601f016020900481019282601f1061208c57805160ff19168380011785556120ba565b828001600101855582156120ba579182015b828111156120b957825182559160200191906001019061209e565b5b5090506120c791906120cb565b5090565b6120ed91905b808211156120e95760008160009055506001016120d1565b5090565b9056fe456c20706167617265206e6f20657374612061637469766f206f206e6f206861207369646f206669726d61646f456c20656e646f73616e7465206e6f20657320656c206c65676974696d6f2074656e65646f722064656c20706167617265517569656e206c6f206c6c616d61206e6f20657320656c206163726565646f722064656c20706167617265456c2071756520717569657265206669726d6172206e6f20657320717569656e206170617265636520636f6d6f20646575646f72a265627a7a72315820d581f62014ecd32984d0f820ce12956d593dc08dfe8b95a0a0c5ba91319d3b8a64736f6c63430005100032",
  "source": "// pragma solidity ^0.5.16;\r\n// pragma solidity ^0.6.4;\r\npragma solidity >=0.5.16 <0.7.0;\r\n\r\n\r\ncontract PagareVirtual {\r\n    string id = \"cccc\";\r\n\r\n    function setId(string memory serial) public {\r\n        id = serial;\r\n    }\r\n\r\n    function getId() public view returns (string memory) {\r\n        return id;\r\n    }\r\n\r\n    // Numero de apgares general\r\n    uint256 numPagares;\r\n    // Numero endosos general\r\n    uint256 numEndosos;\r\n\r\n    constructor() public {\r\n        numPagares = 0;\r\n        numEndosos = 1;\r\n    }\r\n\r\n    // Numero de pagares de un deudor como deudor\r\n    mapping(address => uint256) pagareDeudorCount;\r\n    // numero de pagares en como acreedor para el address x\r\n    mapping(address => uint256) pagareAcreedorCount;\r\n\r\n    //Info tiene las variables: fecha_creacion,fecha_vencimiento,fecha_expiracion,lugar_creacion,lugar_cumplimiento,firma\r\n    struct Pagare {\r\n        uint256 _id;\r\n        uint256 valorWei;\r\n        address id_deudor;\r\n        address id_acreedor;\r\n        string info;\r\n        bool firmado;\r\n        uint256 ultimo_endoso;\r\n        uint256 fecha_creacion;\r\n        uint256 fecha_vencimiento;\r\n        bool activo;\r\n    }\r\n\r\n    struct Endoso {\r\n        uint256 _id;\r\n        uint256 id_anterior_endoso;\r\n        address id_endosante;\r\n        address id_endosatario;\r\n        uint256 id_pagare;\r\n        uint256 fecha;\r\n        bool es_ultimo_endoso;\r\n    }\r\n\r\n    mapping(uint256 => Pagare) private pagareStore;\r\n\r\n    mapping(uint256 => Endoso) private endosoStore;\r\n\r\n    //[id_acreedor][id_pagare]\r\n    mapping(address => mapping(uint256 => bool)) private acreedorStore;\r\n\r\n    //[id_deudor][id_pagare]\r\n    mapping(address => mapping(uint256 => bool)) private deudorStore;\r\n\r\n    event PagareCreate(\r\n        uint256 _id,\r\n        address deudor_id,\r\n        address acreedor_id,\r\n        uint256 valor\r\n    );\r\n    event RejectCreate(string _id, string message);\r\n    event AcceptEndoso(\r\n        address from,\r\n        address to,\r\n        uint256 _id,\r\n        uint256 id_endoso\r\n    );\r\n    event RejectEndoso(string from, string to, string _id, string message);\r\n\r\n    function createPagare(\r\n        address id_deudor,\r\n        string memory info,\r\n        uint256 fecha_creacion,\r\n        uint256 fecha_vencimiento\r\n    ) public payable {\r\n        uint256 _id = numPagares;\r\n        numPagares++;\r\n        pagareStore[_id] = Pagare(\r\n            _id,\r\n            msg.value,\r\n            id_deudor,\r\n            msg.sender,\r\n            info,\r\n            false,\r\n            0,\r\n            fecha_creacion,\r\n            fecha_vencimiento,\r\n            false //activo\r\n        );\r\n        acreedorStore[msg.sender][_id] = true;\r\n        deudorStore[id_deudor][_id] = true;\r\n        pagareDeudorCount[id_deudor]++;\r\n        pagareAcreedorCount[msg.sender]++;\r\n        emit PagareCreate(_id, id_deudor, msg.sender, msg.value);\r\n    }\r\n\r\n    function firmarPagare(uint256 _id) public {\r\n        require(\r\n            msg.sender == pagareStore[_id].id_deudor,\r\n            \"El que quiere firmar no es quien aparece como deudor\"\r\n        );\r\n        require(pagareStore[_id].firmado == false, \"El pagare ya esta firmado\");\r\n        msg.sender.transfer(pagareStore[_id].valorWei);\r\n        pagareStore[_id].firmado = true;\r\n        pagareStore[_id].activo = true;\r\n    }\r\n\r\n    function endosarPagare(\r\n        address id_endosatario,\r\n        uint256 id_pagare,\r\n        uint256 fecha\r\n    ) public {\r\n        address id_endosante = msg.sender;\r\n        uint256 id_endoso = numEndosos;\r\n        numEndosos++;\r\n        require(\r\n            acreedorStore[msg.sender][id_pagare],\r\n            \"El endosante no es el legitimo tenedor del pagare\"\r\n        );\r\n        require(\r\n            pagareStore[id_pagare].activo,\r\n            \"El pagare no esta activo o no ha sido firmado\"\r\n        );\r\n        endosoStore[id_endoso] = Endoso(\r\n            id_endoso,\r\n            pagareStore[id_pagare].ultimo_endoso,\r\n            id_endosante,\r\n            id_endosatario,\r\n            id_pagare,\r\n            fecha,\r\n            true\r\n        );\r\n        endosoStore[pagareStore[id_pagare].ultimo_endoso]\r\n            .es_ultimo_endoso = false;\r\n        pagareStore[id_pagare].ultimo_endoso = id_endoso;\r\n        acreedorStore[id_endosante][id_pagare] = false;\r\n        acreedorStore[id_endosatario][id_pagare] = true;\r\n        emit AcceptEndoso(id_endosante, id_endosatario, id_pagare, id_endoso);\r\n    }\r\n\r\n    function getPagareById(uint256 _id)\r\n        public\r\n        view\r\n        returns (\r\n            uint256,\r\n            address,\r\n            address,\r\n            string memory,\r\n            bool,\r\n            uint256,\r\n            uint256\r\n        )\r\n    {\r\n        return (\r\n            pagareStore[_id].valorWei,\r\n            pagareStore[_id].id_deudor,\r\n            pagareStore[_id].id_acreedor,\r\n            pagareStore[_id].info,\r\n            pagareStore[_id].firmado,\r\n            pagareStore[_id].fecha_creacion,\r\n            pagareStore[_id].fecha_vencimiento\r\n        );\r\n    }\r\n\r\n    function getEndosoById(uint256 _id)\r\n        public\r\n        view\r\n        returns (uint256, uint256, address, address, uint256, uint256, bool)\r\n    {\r\n        return (\r\n            endosoStore[_id]._id,\r\n            endosoStore[_id].id_anterior_endoso,\r\n            endosoStore[_id].id_endosante,\r\n            endosoStore[_id].id_endosatario,\r\n            endosoStore[_id].id_pagare,\r\n            endosoStore[_id].fecha,\r\n            endosoStore[_id].es_ultimo_endoso\r\n        );\r\n    }\r\n\r\n    function esAcreedorDe(address owner, uint256 _id)\r\n        public\r\n        view\r\n        returns (bool)\r\n    {\r\n        if (acreedorStore[owner][_id]) {\r\n            return true;\r\n        }\r\n\r\n        return false;\r\n    }\r\n\r\n    function esDeudorDe(address owner, uint256 _id) public view returns (bool) {\r\n        if (deudorStore[owner][_id]) {\r\n            return true;\r\n        }\r\n\r\n        return false;\r\n    }\r\n\r\n    function getIdPagaresDeudor(address deudor)\r\n        public\r\n        view\r\n        returns (uint256[] memory)\r\n    {\r\n        uint256[] memory ret = new uint256[](pagareDeudorCount[deudor]);\r\n        uint256 j = 0;\r\n        for (uint256 i = 0; i < numPagares; i++) {\r\n            if (deudorStore[deudor][i]) {\r\n                ret[j] = pagareStore[i]._id;\r\n                j++;\r\n            }\r\n        }\r\n        return ret;\r\n    }\r\n\r\n    function getIdPagaresAcreedor(address acreedor)\r\n        public\r\n        view\r\n        returns (uint256[] memory)\r\n    {\r\n        uint256[] memory ret = new uint256[](pagareAcreedorCount[acreedor]);\r\n        uint256 j = 0;\r\n        for (uint256 i = 0; i < numPagares; i++) {\r\n            if (esAcreedorDe(acreedor, i)) {\r\n                ret[j] = pagareStore[i]._id;\r\n                j++;\r\n            }\r\n        }\r\n        return ret;\r\n    }\r\n\r\n    function devolverDinero(uint256 _id) public {\r\n        require(\r\n            msg.sender == pagareStore[_id].id_acreedor,\r\n            \"Quien lo llama no es el acreedor del pagare\"\r\n        );\r\n        require(pagareStore[_id].firmado == false, \"Ya fue firmado el pagare\");\r\n        uint256 ahora = block.timestamp;\r\n        uint256 diff = ahora - pagareStore[_id].fecha_creacion;\r\n        uint256 segundos2dias = 2 * 24 * 60 * 60;\r\n        require(diff > segundos2dias, \"No han pasado 2 dias aun\");\r\n        deudorStore[pagareStore[_id].id_deudor][_id] = false;\r\n        acreedorStore[msg.sender][_id] = false;\r\n        pagareDeudorCount[pagareStore[_id].id_deudor] --;\r\n        pagareAcreedorCount[msg.sender] --;\r\n        pagareStore[_id].id_deudor = 0x0000000000000000000000000000000000000000;\r\n        pagareStore[_id].id_acreedor = 0x0000000000000000000000000000000000000000;\r\n        msg.sender.transfer(pagareStore[_id].valorWei);\r\n        pagareStore[_id].valorWei = 0;\r\n    }\r\n\r\n    function getEndososPagare(uint256 _id)\r\n        public\r\n        view\r\n        returns (uint256[] memory)\r\n    {\r\n        uint256 nEndosos = 0;\r\n        uint256 currentEndoso = pagareStore[_id].ultimo_endoso;\r\n        while (currentEndoso > 0) {\r\n            nEndosos++;\r\n            currentEndoso = endosoStore[currentEndoso].id_anterior_endoso;\r\n        }\r\n        uint256[] memory ret = new uint256[](nEndosos);\r\n        currentEndoso = pagareStore[_id].ultimo_endoso;\r\n        for (uint256 i = 0; i < nEndosos; i++) {\r\n            ret[i] = currentEndoso;\r\n            currentEndoso = endosoStore[currentEndoso].id_anterior_endoso;\r\n        }\r\n        return ret;\r\n    }\r\n}\r\n",
  "sourcePath": "C:\\Users\\jdzga\\tesis\\back-end\\truffle stuff\\contracts\\pagareVirtual.sol",
  "compiler": {
    "name": "solc",
    "version": "0.5.16+commit.9c3226ce.Emscripten.clang"
  },
  "schemaVersion": "3.0.23",
  "updatedAt": "2020-05-12T23:55:20.068Z",
  "networkType": "ethereum",
  "devdoc": {
    "methods": {}
  },
  "userdoc": {
    "methods": {}
  }
}