{
  "contractName": "PagareTracker",
  "abi": [
    {
      "anonymous": false,
      "inputs": [
        {
          "indexed": false,
          "internalType": "string",
          "name": "_id",
          "type": "string"
        },
        {
          "indexed": false,
          "internalType": "string",
          "name": "deudor_id",
          "type": "string"
        },
        {
          "indexed": false,
          "internalType": "string",
          "name": "acreedor_id",
          "type": "string"
        },
        {
          "indexed": false,
          "internalType": "string",
          "name": "valor",
          "type": "string"
        }
      ],
      "name": "PagareCreate",
      "type": "event"
    },
    {
      "anonymous": false,
      "inputs": [
        {
          "indexed": false,
          "internalType": "string",
          "name": "from",
          "type": "string"
        },
        {
          "indexed": false,
          "internalType": "string",
          "name": "to",
          "type": "string"
        },
        {
          "indexed": false,
          "internalType": "string",
          "name": "_id",
          "type": "string"
        }
      ],
      "name": "PagareEndoso",
      "type": "event"
    },
    {
      "anonymous": false,
      "inputs": [
        {
          "indexed": false,
          "internalType": "string",
          "name": "_id",
          "type": "string"
        },
        {
          "indexed": false,
          "internalType": "string",
          "name": "message",
          "type": "string"
        }
      ],
      "name": "RejectCreate",
      "type": "event"
    },
    {
      "anonymous": false,
      "inputs": [
        {
          "indexed": false,
          "internalType": "string",
          "name": "from",
          "type": "string"
        },
        {
          "indexed": false,
          "internalType": "string",
          "name": "to",
          "type": "string"
        },
        {
          "indexed": false,
          "internalType": "string",
          "name": "_id",
          "type": "string"
        },
        {
          "indexed": false,
          "internalType": "string",
          "name": "message",
          "type": "string"
        }
      ],
      "name": "RejectEndoso",
      "type": "event"
    },
    {
      "constant": false,
      "inputs": [
        {
          "internalType": "string",
          "name": "serial",
          "type": "string"
        }
      ],
      "name": "setId",
      "outputs": [],
      "payable": false,
      "stateMutability": "nonpayable",
      "type": "function"
    },
    {
      "constant": true,
      "inputs": [],
      "name": "getId",
      "outputs": [
        {
          "internalType": "string",
          "name": "",
          "type": "string"
        }
      ],
      "payable": false,
      "stateMutability": "view",
      "type": "function"
    },
    {
      "constant": false,
      "inputs": [
        {
          "internalType": "string",
          "name": "_id",
          "type": "string"
        },
        {
          "internalType": "string",
          "name": "valor",
          "type": "string"
        },
        {
          "internalType": "string",
          "name": "id_deudor",
          "type": "string"
        },
        {
          "internalType": "string",
          "name": "id_acreedor",
          "type": "string"
        },
        {
          "internalType": "string",
          "name": "info",
          "type": "string"
        }
      ],
      "name": "createPagare",
      "outputs": [],
      "payable": false,
      "stateMutability": "nonpayable",
      "type": "function"
    },
    {
      "constant": false,
      "inputs": [
        {
          "internalType": "string",
          "name": "id_endosante",
          "type": "string"
        },
        {
          "internalType": "string",
          "name": "id_endosatario",
          "type": "string"
        },
        {
          "internalType": "string",
          "name": "_id",
          "type": "string"
        },
        {
          "internalType": "string",
          "name": "fecha",
          "type": "string"
        },
        {
          "internalType": "string",
          "name": "firma",
          "type": "string"
        },
        {
          "internalType": "string",
          "name": "id_endoso",
          "type": "string"
        }
      ],
      "name": "transferPagare",
      "outputs": [],
      "payable": false,
      "stateMutability": "nonpayable",
      "type": "function"
    },
    {
      "constant": true,
      "inputs": [
        {
          "internalType": "string",
          "name": "_id",
          "type": "string"
        }
      ],
      "name": "getPagareById",
      "outputs": [
        {
          "internalType": "string",
          "name": "",
          "type": "string"
        },
        {
          "internalType": "string",
          "name": "",
          "type": "string"
        },
        {
          "internalType": "string",
          "name": "",
          "type": "string"
        },
        {
          "internalType": "string",
          "name": "",
          "type": "string"
        },
        {
          "internalType": "string",
          "name": "",
          "type": "string"
        },
        {
          "internalType": "string",
          "name": "",
          "type": "string"
        },
        {
          "internalType": "bool",
          "name": "",
          "type": "bool"
        }
      ],
      "payable": false,
      "stateMutability": "view",
      "type": "function"
    },
    {
      "constant": true,
      "inputs": [
        {
          "internalType": "string",
          "name": "_id",
          "type": "string"
        }
      ],
      "name": "getEndosoById",
      "outputs": [
        {
          "internalType": "string",
          "name": "",
          "type": "string"
        },
        {
          "internalType": "string",
          "name": "",
          "type": "string"
        },
        {
          "internalType": "string",
          "name": "",
          "type": "string"
        },
        {
          "internalType": "string",
          "name": "",
          "type": "string"
        },
        {
          "internalType": "string",
          "name": "",
          "type": "string"
        },
        {
          "internalType": "string",
          "name": "",
          "type": "string"
        },
        {
          "internalType": "string",
          "name": "",
          "type": "string"
        }
      ],
      "payable": false,
      "stateMutability": "view",
      "type": "function"
    },
    {
      "constant": true,
      "inputs": [
        {
          "internalType": "string",
          "name": "owner",
          "type": "string"
        },
        {
          "internalType": "string",
          "name": "_id",
          "type": "string"
        }
      ],
      "name": "isOwnerOf",
      "outputs": [
        {
          "internalType": "bool",
          "name": "",
          "type": "bool"
        }
      ],
      "payable": false,
      "stateMutability": "view",
      "type": "function"
    },
    {
      "constant": false,
      "inputs": [
        {
          "internalType": "string",
          "name": "_id",
          "type": "string"
        }
      ],
      "name": "marcarPagado",
      "outputs": [],
      "payable": false,
      "stateMutability": "nonpayable",
      "type": "function"
    }
  ],
  "bytecode": "0x60806040526040518060400160405280600381526020017f6161610000000000000000000000000000000000000000000000000000000000815250600090805190602001906200005192919062000066565b503480156200005f57600080fd5b5062000115565b828054600181600116156101000203166002900490600052602060002090601f016020900481019282601f10620000a957805160ff1916838001178555620000da565b82800160010185558215620000da579182015b82811115620000d9578251825591602001919060010190620000bc565b5b509050620000e99190620000ed565b5090565b6200011291905b808211156200010e576000816000905550600101620000f4565b5090565b90565b6134a180620001256000396000f3fe608060405234801561001057600080fd5b50600436106100885760003560e01c806387e4396c1161005b57806387e4396c146106905780639ba3d79b1461074b578063b0607df414610a62578063e93fd42a14610e1e57610088565b8063292219681461008d5780634c4e8582146101485780635d1ca631146102b257806364cbe8e114610335575b600080fd5b610146600480360360208110156100a357600080fd5b81019080803590602001906401000000008111156100c057600080fd5b8201836020820111156100d257600080fd5b803590602001918460018302840111640100000000831117156100f457600080fd5b91908080601f016020809104026020016040519081016040528093929190818152602001838380828437600081840152601f19601f8201169050808301925050505050505091929192905050506111cc565b005b6102986004803603604081101561015e57600080fd5b810190808035906020019064010000000081111561017b57600080fd5b82018360208201111561018d57600080fd5b803590602001918460018302840111640100000000831117156101af57600080fd5b91908080601f016020809104026020016040519081016040528093929190818152602001838380828437600081840152601f19601f8201169050808301925050505050505091929192908035906020019064010000000081111561021257600080fd5b82018360208201111561022457600080fd5b8035906020019184600183028401116401000000008311171561024657600080fd5b91908080601f016020809104026020016040519081016040528093929190818152602001838380828437600081840152601f19601f820116905080830192505050505050509192919290505050611254565b604051808215151515815260200191505060405180910390f35b6102ba61134d565b6040518080602001828103825283818151815260200191508051906020019080838360005b838110156102fa5780820151818401526020810190506102df565b50505050905090810190601f1680156103275780820380516001836020036101000a031916815260200191505b509250505060405180910390f35b6103ee6004803603602081101561034b57600080fd5b810190808035906020019064010000000081111561036857600080fd5b82018360208201111561037a57600080fd5b8035906020019184600183028401116401000000008311171561039c57600080fd5b91908080601f016020809104026020016040519081016040528093929190818152602001838380828437600081840152601f19601f8201169050808301925050505050505091929192905050506113ef565b604051808060200180602001806020018060200180602001806020018815151515815260200187810387528e818151815260200191508051906020019080838360005b8381101561044c578082015181840152602081019050610431565b50505050905090810190601f1680156104795780820380516001836020036101000a031916815260200191505b5087810386528d818151815260200191508051906020019080838360005b838110156104b2578082015181840152602081019050610497565b50505050905090810190601f1680156104df5780820380516001836020036101000a031916815260200191505b5087810385528c818151815260200191508051906020019080838360005b838110156105185780820151818401526020810190506104fd565b50505050905090810190601f1680156105455780820380516001836020036101000a031916815260200191505b5087810384528b818151815260200191508051906020019080838360005b8381101561057e578082015181840152602081019050610563565b50505050905090810190601f1680156105ab5780820380516001836020036101000a031916815260200191505b5087810383528a818151815260200191508051906020019080838360005b838110156105e45780820151818401526020810190506105c9565b50505050905090810190601f1680156106115780820380516001836020036101000a031916815260200191505b50878103825289818151815260200191508051906020019080838360005b8381101561064a57808201518184015260208101905061062f565b50505050905090810190601f1680156106775780820380516001836020036101000a031916815260200191505b509d505050505050505050505050505060405180910390f35b610749600480360360208110156106a657600080fd5b81019080803590602001906401000000008111156106c357600080fd5b8201836020820111156106d557600080fd5b803590602001918460018302840111640100000000831117156106f757600080fd5b91908080601f016020809104026020016040519081016040528093929190818152602001838380828437600081840152601f19601f820116905080830192505050505050509192919290505050611abd565b005b610a60600480360360a081101561076157600080fd5b810190808035906020019064010000000081111561077e57600080fd5b82018360208201111561079057600080fd5b803590602001918460018302840111640100000000831117156107b257600080fd5b91908080601f016020809104026020016040519081016040528093929190818152602001838380828437600081840152601f19601f8201169050808301925050505050505091929192908035906020019064010000000081111561081557600080fd5b82018360208201111561082757600080fd5b8035906020019184600183028401116401000000008311171561084957600080fd5b91908080601f016020809104026020016040519081016040528093929190818152602001838380828437600081840152601f19601f820116905080830192505050505050509192919290803590602001906401000000008111156108ac57600080fd5b8201836020820111156108be57600080fd5b803590602001918460018302840111640100000000831117156108e057600080fd5b91908080601f016020809104026020016040519081016040528093929190818152602001838380828437600081840152601f19601f8201169050808301925050505050505091929192908035906020019064010000000081111561094357600080fd5b82018360208201111561095557600080fd5b8035906020019184600183028401116401000000008311171561097757600080fd5b91908080601f016020809104026020016040519081016040528093929190818152602001838380828437600081840152601f19601f820116905080830192505050505050509192919290803590602001906401000000008111156109da57600080fd5b8201836020820111156109ec57600080fd5b80359060200191846001830284011164010000000083111715610a0e57600080fd5b91908080601f016020809104026020016040519081016040528093929190818152602001838380828437600081840152601f19601f820116905080830192505050505050509192919290505050611ad7565b005b610b1b60048036036020811015610a7857600080fd5b8101908080359060200190640100000000811115610a9557600080fd5b820183602082011115610aa757600080fd5b80359060200191846001830284011164010000000083111715610ac957600080fd5b91908080601f016020809104026020016040519081016040528093929190818152602001838380828437600081840152601f19601f8201169050808301925050505050505091929192905050506120c6565b604051808060200180602001806020018060200180602001806020018060200188810388528f818151815260200191508051906020019080838360005b83811015610b73578082015181840152602081019050610b58565b50505050905090810190601f168015610ba05780820380516001836020036101000a031916815260200191505b5088810387528e818151815260200191508051906020019080838360005b83811015610bd9578082015181840152602081019050610bbe565b50505050905090810190601f168015610c065780820380516001836020036101000a031916815260200191505b5088810386528d818151815260200191508051906020019080838360005b83811015610c3f578082015181840152602081019050610c24565b50505050905090810190601f168015610c6c5780820380516001836020036101000a031916815260200191505b5088810385528c818151815260200191508051906020019080838360005b83811015610ca5578082015181840152602081019050610c8a565b50505050905090810190601f168015610cd25780820380516001836020036101000a031916815260200191505b5088810384528b818151815260200191508051906020019080838360005b83811015610d0b578082015181840152602081019050610cf0565b50505050905090810190601f168015610d385780820380516001836020036101000a031916815260200191505b5088810383528a818151815260200191508051906020019080838360005b83811015610d71578082015181840152602081019050610d56565b50505050905090810190601f168015610d9e5780820380516001836020036101000a031916815260200191505b50888103825289818151815260200191508051906020019080838360005b83811015610dd7578082015181840152602081019050610dbc565b50505050905090810190601f168015610e045780820380516001836020036101000a031916815260200191505b509e50505050505050505050505050505060405180910390f35b6111ca600480360360c0811015610e3457600080fd5b8101908080359060200190640100000000811115610e5157600080fd5b820183602082011115610e6357600080fd5b80359060200191846001830284011164010000000083111715610e8557600080fd5b91908080601f016020809104026020016040519081016040528093929190818152602001838380828437600081840152601f19601f82011690508083019250505050505050919291929080359060200190640100000000811115610ee857600080fd5b820183602082011115610efa57600080fd5b80359060200191846001830284011164010000000083111715610f1c57600080fd5b91908080601f016020809104026020016040519081016040528093929190818152602001838380828437600081840152601f19601f82011690508083019250505050505050919291929080359060200190640100000000811115610f7f57600080fd5b820183602082011115610f9157600080fd5b80359060200191846001830284011164010000000083111715610fb357600080fd5b91908080601f016020809104026020016040519081016040528093929190818152602001838380828437600081840152601f19601f8201169050808301925050505050505091929192908035906020019064010000000081111561101657600080fd5b82018360208201111561102857600080fd5b8035906020019184600183028401116401000000008311171561104a57600080fd5b91908080601f016020809104026020016040519081016040528093929190818152602001838380828437600081840152601f19601f820116905080830192505050505050509192919290803590602001906401000000008111156110ad57600080fd5b8201836020820111156110bf57600080fd5b803590602001918460018302840111640100000000831117156110e157600080fd5b91908080601f016020809104026020016040519081016040528093929190818152602001838380828437600081840152601f19601f8201169050808301925050505050505091929192908035906020019064010000000081111561114457600080fd5b82018360208201111561115657600080fd5b8035906020019184600183028401116401000000008311171561117857600080fd5b91908080601f016020809104026020016040519081016040528093929190818152602001838380828437600081840152601f19601f820116905080830192505050505050509192919290505050612822565b005b60006001826040518082805190602001908083835b6020831061120457805182526020820191506020810190506020830392506111e1565b6001836020036101000a038019825116818451168082178552505050505050905001915050908152602001604051809103902060050160006101000a81548160ff02191690831515021790555050565b60006003836040518082805190602001908083835b6020831061128c5780518252602082019150602081019050602083039250611269565b6001836020036101000a0380198251168184511680821785525050505050509050019150509081526020016040518091039020826040518082805190602001908083835b602083106112f357805182526020820191506020810190506020830392506112d0565b6001836020036101000a038019825116818451168082178552505050505050905001915050908152602001604051809103902060009054906101000a900460ff16156113425760019050611347565b600090505b92915050565b606060008054600181600116156101000203166002900480601f0160208091040260200160405190810160405280929190818152602001828054600181600116156101000203166002900480156113e55780601f106113ba576101008083540402835291602001916113e5565b820191906000526020600020905b8154815290600101906020018083116113c857829003601f168201915b5050505050905090565b60608060608060608060006001886040518082805190602001908083835b60208310611430578051825260208201915060208101905060208303925061140d565b6001836020036101000a03801982511681845116808217855250505050505090500191505090815260200160405180910390206000016001896040518082805190602001908083835b6020831061149c5780518252602082019150602081019050602083039250611479565b6001836020036101000a038019825116818451168082178552505050505050905001915050908152602001604051809103902060010160018a6040518082805190602001908083835b6020831061150857805182526020820191506020810190506020830392506114e5565b6001836020036101000a038019825116818451168082178552505050505050905001915050908152602001604051809103902060020160018b6040518082805190602001908083835b602083106115745780518252602082019150602081019050602083039250611551565b6001836020036101000a038019825116818451168082178552505050505050905001915050908152602001604051809103902060030160018c6040518082805190602001908083835b602083106115e057805182526020820191506020810190506020830392506115bd565b6001836020036101000a038019825116818451168082178552505050505050905001915050908152602001604051809103902060040160018d6040518082805190602001908083835b6020831061164c5780518252602082019150602081019050602083039250611629565b6001836020036101000a038019825116818451168082178552505050505050905001915050908152602001604051809103902060060160018e6040518082805190602001908083835b602083106116b85780518252602082019150602081019050602083039250611695565b6001836020036101000a038019825116818451168082178552505050505050905001915050908152602001604051809103902060050160009054906101000a900460ff16868054600181600116156101000203166002900480601f0160208091040260200160405190810160405280929190818152602001828054600181600116156101000203166002900480156117915780601f1061176657610100808354040283529160200191611791565b820191906000526020600020905b81548152906001019060200180831161177457829003601f168201915b50505050509650858054600181600116156101000203166002900480601f01602080910402602001604051908101604052809291908181526020018280546001816001161561010002031660029004801561182d5780601f106118025761010080835404028352916020019161182d565b820191906000526020600020905b81548152906001019060200180831161181057829003601f168201915b50505050509550848054600181600116156101000203166002900480601f0160208091040260200160405190810160405280929190818152602001828054600181600116156101000203166002900480156118c95780601f1061189e576101008083540402835291602001916118c9565b820191906000526020600020905b8154815290600101906020018083116118ac57829003601f168201915b50505050509450838054600181600116156101000203166002900480601f0160208091040260200160405190810160405280929190818152602001828054600181600116156101000203166002900480156119655780601f1061193a57610100808354040283529160200191611965565b820191906000526020600020905b81548152906001019060200180831161194857829003601f168201915b50505050509350828054600181600116156101000203166002900480601f016020809104026020016040519081016040528092919081815260200182805460018160011615610100020316600290048015611a015780601f106119d657610100808354040283529160200191611a01565b820191906000526020600020905b8154815290600101906020018083116119e457829003601f168201915b50505050509250818054600181600116156101000203166002900480601f016020809104026020016040519081016040528092919081815260200182805460018160011615610100020316600290048015611a9d5780601f10611a7257610100808354040283529160200191611a9d565b820191906000526020600020905b815481529060010190602001808311611a8057829003601f168201915b505050505091509650965096509650965096509650919395979092949650565b8060009080519060200190611ad39291906132f0565b5050565b60006001866040518082805190602001908083835b60208310611b0f5780518252602082019150602081019050602083039250611aec565b6001836020036101000a038019825116818451168082178552505050505050905001915050908152602001604051809103902060000180546001816001161561010002031660029004905014611b64576120bf565b6040518060e001604052808681526020018581526020018481526020018381526020018281526020016001151581526020016040518060400160405280600481526020017f6e756c6c000000000000000000000000000000000000000000000000000000008152508152506001866040518082805190602001908083835b60208310611c055780518252602082019150602081019050602083039250611be2565b6001836020036101000a03801982511681845116808217855250505050505090500191505090815260200160405180910390206000820151816000019080519060200190611c54929190613370565b506020820151816001019080519060200190611c71929190613370565b506040820151816002019080519060200190611c8e929190613370565b506060820151816003019080519060200190611cab929190613370565b506080820151816004019080519060200190611cc8929190613370565b5060a08201518160050160006101000a81548160ff02191690831515021790555060c0820151816006019080519060200190611d05929190613370565b5090505060016003836040518082805190602001908083835b60208310611d415780518252602082019150602081019050602083039250611d1e565b6001836020036101000a0380198251168184511680821785525050505050509050019150509081526020016040518091039020866040518082805190602001908083835b60208310611da85780518252602082019150602081019050602083039250611d85565b6001836020036101000a038019825116818451168082178552505050505050905001915050908152602001604051809103902060006101000a81548160ff02191690831515021790555060016004846040518082805190602001908083835b60208310611e2a5780518252602082019150602081019050602083039250611e07565b6001836020036101000a0380198251168184511680821785525050505050509050019150509081526020016040518091039020866040518082805190602001908083835b60208310611e915780518252602082019150602081019050602083039250611e6e565b6001836020036101000a038019825116818451168082178552505050505050905001915050908152602001604051809103902060006101000a81548160ff0219169083151502179055507f2c6097b2aac8c0990d89071cfae40ae87f354ee79288b32e65f722b88bdcb2f8858484876040518080602001806020018060200180602001858103855289818151815260200191508051906020019080838360005b83811015611f4c578082015181840152602081019050611f31565b50505050905090810190601f168015611f795780820380516001836020036101000a031916815260200191505b50858103845288818151815260200191508051906020019080838360005b83811015611fb2578082015181840152602081019050611f97565b50505050905090810190601f168015611fdf5780820380516001836020036101000a031916815260200191505b50858103835287818151815260200191508051906020019080838360005b83811015612018578082015181840152602081019050611ffd565b50505050905090810190601f1680156120455780820380516001836020036101000a031916815260200191505b50858103825286818151815260200191508051906020019080838360005b8381101561207e578082015181840152602081019050612063565b50505050905090810190601f1680156120ab5780820380516001836020036101000a031916815260200191505b509850505050505050505060405180910390a15b5050505050565b60608060608060608060606002886040518082805190602001908083835b6020831061210757805182526020820191506020810190506020830392506120e4565b6001836020036101000a03801982511681845116808217855250505050505090500191505090815260200160405180910390206000016002896040518082805190602001908083835b602083106121735780518252602082019150602081019050602083039250612150565b6001836020036101000a038019825116818451168082178552505050505050905001915050908152602001604051809103902060010160028a6040518082805190602001908083835b602083106121df57805182526020820191506020810190506020830392506121bc565b6001836020036101000a038019825116818451168082178552505050505050905001915050908152602001604051809103902060020160028b6040518082805190602001908083835b6020831061224b5780518252602082019150602081019050602083039250612228565b6001836020036101000a038019825116818451168082178552505050505050905001915050908152602001604051809103902060030160028c6040518082805190602001908083835b602083106122b75780518252602082019150602081019050602083039250612294565b6001836020036101000a038019825116818451168082178552505050505050905001915050908152602001604051809103902060040160028d6040518082805190602001908083835b602083106123235780518252602082019150602081019050602083039250612300565b6001836020036101000a038019825116818451168082178552505050505050905001915050908152602001604051809103902060050160028e6040518082805190602001908083835b6020831061238f578051825260208201915060208101905060208303925061236c565b6001836020036101000a0380198251168184511680821785525050505050509050019150509081526020016040518091039020600601868054600181600116156101000203166002900480601f01602080910402602001604051908101604052809291908181526020018280546001816001161561010002031660029004801561245a5780601f1061242f5761010080835404028352916020019161245a565b820191906000526020600020905b81548152906001019060200180831161243d57829003601f168201915b50505050509650858054600181600116156101000203166002900480601f0160208091040260200160405190810160405280929190818152602001828054600181600116156101000203166002900480156124f65780601f106124cb576101008083540402835291602001916124f6565b820191906000526020600020905b8154815290600101906020018083116124d957829003601f168201915b50505050509550848054600181600116156101000203166002900480601f0160208091040260200160405190810160405280929190818152602001828054600181600116156101000203166002900480156125925780601f1061256757610100808354040283529160200191612592565b820191906000526020600020905b81548152906001019060200180831161257557829003601f168201915b50505050509450838054600181600116156101000203166002900480601f01602080910402602001604051908101604052809291908181526020018280546001816001161561010002031660029004801561262e5780601f106126035761010080835404028352916020019161262e565b820191906000526020600020905b81548152906001019060200180831161261157829003601f168201915b50505050509350828054600181600116156101000203166002900480601f0160208091040260200160405190810160405280929190818152602001828054600181600116156101000203166002900480156126ca5780601f1061269f576101008083540402835291602001916126ca565b820191906000526020600020905b8154815290600101906020018083116126ad57829003601f168201915b50505050509250818054600181600116156101000203166002900480601f0160208091040260200160405190810160405280929190818152602001828054600181600116156101000203166002900480156127665780601f1061273b57610100808354040283529160200191612766565b820191906000526020600020905b81548152906001019060200180831161274957829003601f168201915b50505050509150808054600181600116156101000203166002900480601f0160208091040260200160405190810160405280929190818152602001828054600181600116156101000203166002900480156128025780601f106127d757610100808354040283529160200191612802565b820191906000526020600020905b8154815290600101906020018083116127e557829003601f168201915b505050505090509650965096509650965096509650919395979092949650565b6001846040518082805190602001908083835b602083106128585780518252602082019150602081019050602083039250612835565b6001836020036101000a038019825116818451168082178552505050505050905001915050908152602001604051809103902060050160009054906101000a900460ff16612a37577f069eb54d108cf3b71798bdcd409bd00e9437145cdac80333231ca0b3b9bbf3018686866040518080602001806020018060200180602001858103855288818151815260200191508051906020019080838360005b838110156129105780820151818401526020810190506128f5565b50505050905090810190601f16801561293d5780820380516001836020036101000a031916815260200191505b50858103845287818151815260200191508051906020019080838360005b8381101561297657808201518184015260208101905061295b565b50505050905090810190601f1680156129a35780820380516001836020036101000a031916815260200191505b50858103835286818151815260200191508051906020019080838360005b838110156129dc5780820151818401526020810190506129c1565b50505050905090810190601f168015612a095780820380516001836020036101000a031916815260200191505b508581038252602e81526020018061343f602e913960400197505050505050505060405180910390a16132e8565b6003866040518082805190602001908083835b60208310612a6d5780518252602082019150602081019050602083039250612a4a565b6001836020036101000a0380198251168184511680821785525050505050509050019150509081526020016040518091039020846040518082805190602001908083835b60208310612ad45780518252602082019150602081019050602083039250612ab1565b6001836020036101000a038019825116818451168082178552505050505050905001915050908152602001604051809103902060009054906101000a900460ff16612cb0577f069eb54d108cf3b71798bdcd409bd00e9437145cdac80333231ca0b3b9bbf3018686866040518080602001806020018060200180602001858103855288818151815260200191508051906020019080838360005b83811015612b89578082015181840152602081019050612b6e565b50505050905090810190601f168015612bb65780820380516001836020036101000a031916815260200191505b50858103845287818151815260200191508051906020019080838360005b83811015612bef578082015181840152602081019050612bd4565b50505050905090810190601f168015612c1c5780820380516001836020036101000a031916815260200191505b50858103835286818151815260200191508051906020019080838360005b83811015612c55578082015181840152602081019050612c3a565b50505050905090810190601f168015612c825780820380516001836020036101000a031916815260200191505b50858103825260298152602001806134166029913960400197505050505050505060405180910390a16132e8565b6040518060e001604052808281526020016001866040518082805190602001908083835b60208310612cf75780518252602082019150602081019050602083039250612cd4565b6001836020036101000a03801982511681845116808217855250505050505090500191505090815260200160405180910390206006018054600181600116156101000203166002900480601f016020809104026020016040519081016040528092919081815260200182805460018160011615610100020316600290048015612dc15780601f10612d9657610100808354040283529160200191612dc1565b820191906000526020600020905b815481529060010190602001808311612da457829003601f168201915b50505050508152602001878152602001868152602001858152602001848152602001838152506002826040518082805190602001908083835b60208310612e1d5780518252602082019150602081019050602083039250612dfa565b6001836020036101000a03801982511681845116808217855250505050505090500191505090815260200160405180910390206000820151816000019080519060200190612e6c929190613370565b506020820151816001019080519060200190612e89929190613370565b506040820151816002019080519060200190612ea6929190613370565b506060820151816003019080519060200190612ec3929190613370565b506080820151816004019080519060200190612ee0929190613370565b5060a0820151816005019080519060200190612efd929190613370565b5060c0820151816006019080519060200190612f1a929190613370565b50905050806001856040518082805190602001908083835b60208310612f555780518252602082019150602081019050602083039250612f32565b6001836020036101000a03801982511681845116808217855250505050505090500191505090815260200160405180910390206006019080519060200190612f9e9291906132f0565b5060006003876040518082805190602001908083835b60208310612fd75780518252602082019150602081019050602083039250612fb4565b6001836020036101000a0380198251168184511680821785525050505050509050019150509081526020016040518091039020856040518082805190602001908083835b6020831061303e578051825260208201915060208101905060208303925061301b565b6001836020036101000a038019825116818451168082178552505050505050905001915050908152602001604051809103902060006101000a81548160ff02191690831515021790555060016003866040518082805190602001908083835b602083106130c0578051825260208201915060208101905060208303925061309d565b6001836020036101000a0380198251168184511680821785525050505050509050019150509081526020016040518091039020856040518082805190602001908083835b602083106131275780518252602082019150602081019050602083039250613104565b6001836020036101000a038019825116818451168082178552505050505050905001915050908152602001604051809103902060006101000a81548160ff0219169083151502179055507fc67095cc426e6514d5ffee9492ef0253fe9e69d1ff1e5912681d7531bf38bb6286868660405180806020018060200180602001848103845287818151815260200191508051906020019080838360005b838110156131dd5780820151818401526020810190506131c2565b50505050905090810190601f16801561320a5780820380516001836020036101000a031916815260200191505b50848103835286818151815260200191508051906020019080838360005b83811015613243578082015181840152602081019050613228565b50505050905090810190601f1680156132705780820380516001836020036101000a031916815260200191505b50848103825285818151815260200191508051906020019080838360005b838110156132a957808201518184015260208101905061328e565b50505050905090810190601f1680156132d65780820380516001836020036101000a031916815260200191505b50965050505050505060405180910390a15b505050505050565b828054600181600116156101000203166002900490600052602060002090601f016020900481019282601f1061333157805160ff191683800117855561335f565b8280016001018555821561335f579182015b8281111561335e578251825591602001919060010190613343565b5b50905061336c91906133f0565b5090565b828054600181600116156101000203166002900490600052602060002090601f016020900481019282601f106133b157805160ff19168380011785556133df565b828001600101855582156133df579182015b828111156133de5782518255916020019190600101906133c3565b5b5090506133ec91906133f0565b5090565b61341291905b8082111561340e5760008160009055506001016133f6565b5090565b9056fe456c20656e646f73616e7465206e6f207469656e6520656c2070616761726520636f6e20656c2069644e6f2065786973746520656c2070616761726520636f6e20656c2069642c206f207961206675652070616761646fa265627a7a72315820d69955db451d6adcb4da8b0b388022cdda00768de5e3e68c8c6d713a57084fb364736f6c63430005100032",
  "source": "// pragma solidity ^0.5.16;\r\n// pragma solidity ^0.6.4;\r\npragma solidity >=0.5.16 <0.7.0;\r\n\r\n\r\ncontract PagareTracker {\r\n    string id = \"aaa\";\r\n\r\n    function setId(string memory serial) public {\r\n        id = serial;\r\n    }\r\n\r\n    function getId() public view returns (string memory) {\r\n        return id;\r\n    }\r\n\r\n    //Info tiene las variables: fecha_creacion,fecha_vencimiento,fecha_expiracion,lugar_creacion,lugar_cumplimiento,firma\r\n    struct Pagare {\r\n        string _id;\r\n        string valor;\r\n        string id_deudor;\r\n        string id_acreedor;\r\n        string info;\r\n        bool pendiente;\r\n        string ultimo_endoso;\r\n    }\r\n\r\n    struct Endoso {\r\n        string _id;\r\n        string id_anterior_endoso;\r\n        string id_endosante;\r\n        string id_endosatario;\r\n        string id_pagare;\r\n        string fecha;\r\n        string firma;\r\n    }\r\n\r\n    mapping(string => Pagare) private pagareStore;\r\n\r\n    mapping(string => Endoso) private endosoStore;\r\n\r\n    //[id_acreedor][id_pagare]\r\n    mapping(string => mapping(string => bool)) private acreedorStore;\r\n\r\n    //[id_deudor][id_pagare]\r\n    mapping(string => mapping(string => bool)) private deudorStore;\r\n\r\n    event PagareCreate(\r\n        string _id,\r\n        string deudor_id,\r\n        string acreedor_id,\r\n        string valor\r\n    );\r\n    event RejectCreate(string _id, string message);\r\n    event PagareEndoso(string from, string to, string _id);\r\n    event RejectEndoso(string from, string to, string _id, string message);\r\n\r\n    function createPagare(\r\n        string memory _id,\r\n        string memory valor,\r\n        string memory id_deudor,\r\n        string memory id_acreedor,\r\n        string memory info\r\n    ) public {\r\n        if (!(bytes(pagareStore[_id]._id).length == 0)) {\r\n            return;\r\n        }\r\n        pagareStore[_id] = Pagare(\r\n            _id,\r\n            valor,\r\n            id_deudor,\r\n            id_acreedor,\r\n            info,\r\n            true,\r\n            \"null\"\r\n        );\r\n        acreedorStore[id_acreedor][_id] = true;\r\n        deudorStore[id_deudor][_id] = true;\r\n        emit PagareCreate(_id, id_deudor, id_acreedor, valor);\r\n    }\r\n\r\n    function transferPagare(\r\n        string memory id_endosante,\r\n        string memory id_endosatario,\r\n        string memory _id,\r\n        string memory fecha,\r\n        string memory firma,\r\n        string memory id_endoso\r\n    ) public {\r\n        if (!pagareStore[_id].pendiente) {\r\n            emit RejectEndoso(\r\n                id_endosante,\r\n                id_endosatario,\r\n                _id,\r\n                \"No existe el pagare con el id, o ya fue pagado\"\r\n            );\r\n            return;\r\n        }\r\n\r\n        if (!acreedorStore[id_endosante][_id]) {\r\n            emit RejectEndoso(\r\n                id_endosante,\r\n                id_endosatario,\r\n                _id,\r\n                \"El endosante no tiene el pagare con el id\"\r\n            );\r\n            return;\r\n        }\r\n        endosoStore[id_endoso] = Endoso(\r\n            id_endoso,\r\n            pagareStore[_id].ultimo_endoso,\r\n            id_endosante,\r\n            id_endosatario,\r\n            _id,\r\n            fecha,\r\n            firma\r\n        );\r\n        pagareStore[_id].ultimo_endoso = id_endoso;\r\n        acreedorStore[id_endosante][_id] = false;\r\n        acreedorStore[id_endosatario][_id] = true;\r\n        emit PagareEndoso(id_endosante, id_endosatario, _id);\r\n    }\r\n\r\n    function getPagareById(string memory _id)\r\n        public\r\n        view\r\n        returns (\r\n            string memory,\r\n            string memory,\r\n            string memory,\r\n            string memory,\r\n            string memory,\r\n            string memory,\r\n            bool\r\n        )\r\n    {\r\n        // string _id, string valor, string id_deudor, string id_acreedor, string info, string firma\r\n        return (\r\n            pagareStore[_id]._id,\r\n            pagareStore[_id].valor,\r\n            pagareStore[_id].id_deudor,\r\n            pagareStore[_id].id_acreedor,\r\n            pagareStore[_id].info,\r\n            pagareStore[_id].ultimo_endoso,\r\n            pagareStore[_id].pendiente\r\n        );\r\n    }\r\n\r\n    function getEndosoById(string memory _id)\r\n        public\r\n        view\r\n        returns (\r\n            string memory,\r\n            string memory,\r\n            string memory,\r\n            string memory,\r\n            string memory,\r\n            string memory,\r\n            string memory\r\n        )\r\n    {\r\n        return (\r\n            endosoStore[_id]._id,\r\n            endosoStore[_id].id_anterior_endoso,\r\n            endosoStore[_id].id_endosante,\r\n            endosoStore[_id].id_endosatario,\r\n            endosoStore[_id].id_pagare,\r\n            endosoStore[_id].fecha,\r\n            endosoStore[_id].firma\r\n        );\r\n    }\r\n\r\n    function isOwnerOf(string memory owner, string memory _id)\r\n        public\r\n        view\r\n        returns (bool)\r\n    {\r\n        if (acreedorStore[owner][_id]) {\r\n            return true;\r\n        }\r\n\r\n        return false;\r\n    }\r\n\r\n    function marcarPagado(string memory _id) public {\r\n        pagareStore[_id].pendiente = false;\r\n    }\r\n}\r\n",
  "sourcePath": "C:\\Users\\jdzga\\tesis\\back-end\\truffle stuff\\contracts\\pagareTracker.sol",
  "compiler": {
    "name": "solc",
    "version": "0.5.16+commit.9c3226ce.Emscripten.clang"
  },
  "schemaVersion": "3.0.23",
  "updatedAt": "2020-04-01T04:01:01.031Z",
  "networkType": "ethereum",
  "devdoc": {
    "methods": {}
  },
  "userdoc": {
    "methods": {}
  }
}