{
  "contractName": "PagareTracker",
  "abi": [
    {
      "anonymous": false,
      "inputs": [
        {
          "indexed": false,
          "internalType": "string",
          "name": "from",
          "type": "string"
        },
        {
          "indexed": false,
          "internalType": "string",
          "name": "to",
          "type": "string"
        },
        {
          "indexed": false,
          "internalType": "string",
          "name": "_id",
          "type": "string"
        },
        {
          "indexed": false,
          "internalType": "string",
          "name": "firma",
          "type": "string"
        },
        {
          "indexed": false,
          "internalType": "string",
          "name": "id_endoso",
          "type": "string"
        }
      ],
      "name": "AcceptEndoso",
      "type": "event"
    },
    {
      "anonymous": false,
      "inputs": [
        {
          "indexed": false,
          "internalType": "string",
          "name": "_id",
          "type": "string"
        },
        {
          "indexed": false,
          "internalType": "string",
          "name": "deudor_id",
          "type": "string"
        },
        {
          "indexed": false,
          "internalType": "string",
          "name": "acreedor_id",
          "type": "string"
        },
        {
          "indexed": false,
          "internalType": "string",
          "name": "valor",
          "type": "string"
        }
      ],
      "name": "PagareCreate",
      "type": "event"
    },
    {
      "anonymous": false,
      "inputs": [
        {
          "indexed": false,
          "internalType": "string",
          "name": "_id",
          "type": "string"
        },
        {
          "indexed": false,
          "internalType": "string",
          "name": "message",
          "type": "string"
        }
      ],
      "name": "RejectCreate",
      "type": "event"
    },
    {
      "anonymous": false,
      "inputs": [
        {
          "indexed": false,
          "internalType": "string",
          "name": "from",
          "type": "string"
        },
        {
          "indexed": false,
          "internalType": "string",
          "name": "to",
          "type": "string"
        },
        {
          "indexed": false,
          "internalType": "string",
          "name": "_id",
          "type": "string"
        },
        {
          "indexed": false,
          "internalType": "string",
          "name": "message",
          "type": "string"
        }
      ],
      "name": "RejectEndoso",
      "type": "event"
    },
    {
      "constant": false,
      "inputs": [
        {
          "internalType": "string",
          "name": "serial",
          "type": "string"
        }
      ],
      "name": "setId",
      "outputs": [],
      "payable": false,
      "stateMutability": "nonpayable",
      "type": "function"
    },
    {
      "constant": true,
      "inputs": [],
      "name": "getId",
      "outputs": [
        {
          "internalType": "string",
          "name": "",
          "type": "string"
        }
      ],
      "payable": false,
      "stateMutability": "view",
      "type": "function"
    },
    {
      "constant": false,
      "inputs": [
        {
          "internalType": "string",
          "name": "_id",
          "type": "string"
        },
        {
          "internalType": "string",
          "name": "valor",
          "type": "string"
        },
        {
          "internalType": "string",
          "name": "id_deudor",
          "type": "string"
        },
        {
          "internalType": "string",
          "name": "id_acreedor",
          "type": "string"
        },
        {
          "internalType": "string",
          "name": "info",
          "type": "string"
        }
      ],
      "name": "createPagare",
      "outputs": [],
      "payable": false,
      "stateMutability": "nonpayable",
      "type": "function"
    },
    {
      "constant": false,
      "inputs": [
        {
          "internalType": "string",
          "name": "id_endosante",
          "type": "string"
        },
        {
          "internalType": "string",
          "name": "id_endosatario",
          "type": "string"
        },
        {
          "internalType": "string",
          "name": "id_pagare",
          "type": "string"
        },
        {
          "internalType": "string",
          "name": "fecha",
          "type": "string"
        },
        {
          "internalType": "string",
          "name": "firma",
          "type": "string"
        },
        {
          "internalType": "string",
          "name": "id_endoso",
          "type": "string"
        }
      ],
      "name": "endosarPagare",
      "outputs": [],
      "payable": false,
      "stateMutability": "nonpayable",
      "type": "function"
    },
    {
      "constant": true,
      "inputs": [
        {
          "internalType": "string",
          "name": "_id",
          "type": "string"
        }
      ],
      "name": "getPagareById",
      "outputs": [
        {
          "internalType": "string",
          "name": "",
          "type": "string"
        },
        {
          "internalType": "string",
          "name": "",
          "type": "string"
        },
        {
          "internalType": "string",
          "name": "",
          "type": "string"
        },
        {
          "internalType": "string",
          "name": "",
          "type": "string"
        },
        {
          "internalType": "string",
          "name": "",
          "type": "string"
        },
        {
          "internalType": "string",
          "name": "",
          "type": "string"
        },
        {
          "internalType": "bool",
          "name": "",
          "type": "bool"
        }
      ],
      "payable": false,
      "stateMutability": "view",
      "type": "function"
    },
    {
      "constant": true,
      "inputs": [
        {
          "internalType": "string",
          "name": "_id",
          "type": "string"
        }
      ],
      "name": "getEndosoById",
      "outputs": [
        {
          "internalType": "string",
          "name": "",
          "type": "string"
        },
        {
          "internalType": "string",
          "name": "",
          "type": "string"
        },
        {
          "internalType": "string",
          "name": "",
          "type": "string"
        },
        {
          "internalType": "string",
          "name": "",
          "type": "string"
        },
        {
          "internalType": "string",
          "name": "",
          "type": "string"
        },
        {
          "internalType": "string",
          "name": "",
          "type": "string"
        },
        {
          "internalType": "string",
          "name": "",
          "type": "string"
        }
      ],
      "payable": false,
      "stateMutability": "view",
      "type": "function"
    },
    {
      "constant": true,
      "inputs": [
        {
          "internalType": "string",
          "name": "owner",
          "type": "string"
        },
        {
          "internalType": "string",
          "name": "_id",
          "type": "string"
        }
      ],
      "name": "isOwnerOf",
      "outputs": [
        {
          "internalType": "bool",
          "name": "",
          "type": "bool"
        }
      ],
      "payable": false,
      "stateMutability": "view",
      "type": "function"
    },
    {
      "constant": false,
      "inputs": [
        {
          "internalType": "string",
          "name": "_id",
          "type": "string"
        }
      ],
      "name": "marcarPagado",
      "outputs": [],
      "payable": false,
      "stateMutability": "nonpayable",
      "type": "function"
    }
  ],
  "bytecode": "0x60806040526040518060400160405280600381526020017f6161610000000000000000000000000000000000000000000000000000000000815250600090805190602001906200005192919062000066565b503480156200005f57600080fd5b5062000115565b828054600181600116156101000203166002900490600052602060002090601f016020900481019282601f10620000a957805160ff1916838001178555620000da565b82800160010185558215620000da579182015b82811115620000d9578251825591602001919060010190620000bc565b5b509050620000e99190620000ed565b5090565b6200011291905b808211156200010e576000816000905550600101620000f4565b5090565b90565b61377280620001256000396000f3fe608060405234801561001057600080fd5b50600436106100885760003560e01c806364cbe8e11161005b57806364cbe8e1146106e357806387e4396c14610a3e5780639ba3d79b14610af9578063b0607df414610e1057610088565b8063292219681461008d57806342f23eee146101485780634c4e8582146104f65780635d1ca63114610660575b600080fd5b610146600480360360208110156100a357600080fd5b81019080803590602001906401000000008111156100c057600080fd5b8201836020820111156100d257600080fd5b803590602001918460018302840111640100000000831117156100f457600080fd5b91908080601f016020809104026020016040519081016040528093929190818152602001838380828437600081840152601f19601f8201169050808301925050505050505091929192905050506111cc565b005b6104f4600480360360c081101561015e57600080fd5b810190808035906020019064010000000081111561017b57600080fd5b82018360208201111561018d57600080fd5b803590602001918460018302840111640100000000831117156101af57600080fd5b91908080601f016020809104026020016040519081016040528093929190818152602001838380828437600081840152601f19601f8201169050808301925050505050505091929192908035906020019064010000000081111561021257600080fd5b82018360208201111561022457600080fd5b8035906020019184600183028401116401000000008311171561024657600080fd5b91908080601f016020809104026020016040519081016040528093929190818152602001838380828437600081840152601f19601f820116905080830192505050505050509192919290803590602001906401000000008111156102a957600080fd5b8201836020820111156102bb57600080fd5b803590602001918460018302840111640100000000831117156102dd57600080fd5b91908080601f016020809104026020016040519081016040528093929190818152602001838380828437600081840152601f19601f8201169050808301925050505050505091929192908035906020019064010000000081111561034057600080fd5b82018360208201111561035257600080fd5b8035906020019184600183028401116401000000008311171561037457600080fd5b91908080601f016020809104026020016040519081016040528093929190818152602001838380828437600081840152601f19601f820116905080830192505050505050509192919290803590602001906401000000008111156103d757600080fd5b8201836020820111156103e957600080fd5b8035906020019184600183028401116401000000008311171561040b57600080fd5b91908080601f016020809104026020016040519081016040528093929190818152602001838380828437600081840152601f19601f8201169050808301925050505050505091929192908035906020019064010000000081111561046e57600080fd5b82018360208201111561048057600080fd5b803590602001918460018302840111640100000000831117156104a257600080fd5b91908080601f016020809104026020016040519081016040528093929190818152602001838380828437600081840152601f19601f820116905080830192505050505050509192919290505050611254565b005b6106466004803603604081101561050c57600080fd5b810190808035906020019064010000000081111561052957600080fd5b82018360208201111561053b57600080fd5b8035906020019184600183028401116401000000008311171561055d57600080fd5b91908080601f016020809104026020016040519081016040528093929190818152602001838380828437600081840152601f19601f820116905080830192505050505050509192919290803590602001906401000000008111156105c057600080fd5b8201836020820111156105d257600080fd5b803590602001918460018302840111640100000000831117156105f457600080fd5b91908080601f016020809104026020016040519081016040528093929190818152602001838380828437600081840152601f19601f820116905080830192505050505050509192919290505050611f1e565b604051808215151515815260200191505060405180910390f35b610668612017565b6040518080602001828103825283818151815260200191508051906020019080838360005b838110156106a857808201518184015260208101905061068d565b50505050905090810190601f1680156106d55780820380516001836020036101000a031916815260200191505b509250505060405180910390f35b61079c600480360360208110156106f957600080fd5b810190808035906020019064010000000081111561071657600080fd5b82018360208201111561072857600080fd5b8035906020019184600183028401116401000000008311171561074a57600080fd5b91908080601f016020809104026020016040519081016040528093929190818152602001838380828437600081840152601f19601f8201169050808301925050505050505091929192905050506120b9565b604051808060200180602001806020018060200180602001806020018815151515815260200187810387528e818151815260200191508051906020019080838360005b838110156107fa5780820151818401526020810190506107df565b50505050905090810190601f1680156108275780820380516001836020036101000a031916815260200191505b5087810386528d818151815260200191508051906020019080838360005b83811015610860578082015181840152602081019050610845565b50505050905090810190601f16801561088d5780820380516001836020036101000a031916815260200191505b5087810385528c818151815260200191508051906020019080838360005b838110156108c65780820151818401526020810190506108ab565b50505050905090810190601f1680156108f35780820380516001836020036101000a031916815260200191505b5087810384528b818151815260200191508051906020019080838360005b8381101561092c578082015181840152602081019050610911565b50505050905090810190601f1680156109595780820380516001836020036101000a031916815260200191505b5087810383528a818151815260200191508051906020019080838360005b83811015610992578082015181840152602081019050610977565b50505050905090810190601f1680156109bf5780820380516001836020036101000a031916815260200191505b50878103825289818151815260200191508051906020019080838360005b838110156109f85780820151818401526020810190506109dd565b50505050905090810190601f168015610a255780820380516001836020036101000a031916815260200191505b509d505050505050505050505050505060405180910390f35b610af760048036036020811015610a5457600080fd5b8101908080359060200190640100000000811115610a7157600080fd5b820183602082011115610a8357600080fd5b80359060200191846001830284011164010000000083111715610aa557600080fd5b91908080601f016020809104026020016040519081016040528093929190818152602001838380828437600081840152601f19601f820116905080830192505050505050509192919290505050612787565b005b610e0e600480360360a0811015610b0f57600080fd5b8101908080359060200190640100000000811115610b2c57600080fd5b820183602082011115610b3e57600080fd5b80359060200191846001830284011164010000000083111715610b6057600080fd5b91908080601f016020809104026020016040519081016040528093929190818152602001838380828437600081840152601f19601f82011690508083019250505050505050919291929080359060200190640100000000811115610bc357600080fd5b820183602082011115610bd557600080fd5b80359060200191846001830284011164010000000083111715610bf757600080fd5b91908080601f016020809104026020016040519081016040528093929190818152602001838380828437600081840152601f19601f82011690508083019250505050505050919291929080359060200190640100000000811115610c5a57600080fd5b820183602082011115610c6c57600080fd5b80359060200191846001830284011164010000000083111715610c8e57600080fd5b91908080601f016020809104026020016040519081016040528093929190818152602001838380828437600081840152601f19601f82011690508083019250505050505050919291929080359060200190640100000000811115610cf157600080fd5b820183602082011115610d0357600080fd5b80359060200191846001830284011164010000000083111715610d2557600080fd5b91908080601f016020809104026020016040519081016040528093929190818152602001838380828437600081840152601f19601f82011690508083019250505050505050919291929080359060200190640100000000811115610d8857600080fd5b820183602082011115610d9a57600080fd5b80359060200191846001830284011164010000000083111715610dbc57600080fd5b91908080601f016020809104026020016040519081016040528093929190818152602001838380828437600081840152601f19601f8201169050808301925050505050505091929192905050506127a1565b005b610ec960048036036020811015610e2657600080fd5b8101908080359060200190640100000000811115610e4357600080fd5b820183602082011115610e5557600080fd5b80359060200191846001830284011164010000000083111715610e7757600080fd5b91908080601f016020809104026020016040519081016040528093929190818152602001838380828437600081840152601f19601f820116905080830192505050505050509192919290505050612e65565b604051808060200180602001806020018060200180602001806020018060200188810388528f818151815260200191508051906020019080838360005b83811015610f21578082015181840152602081019050610f06565b50505050905090810190601f168015610f4e5780820380516001836020036101000a031916815260200191505b5088810387528e818151815260200191508051906020019080838360005b83811015610f87578082015181840152602081019050610f6c565b50505050905090810190601f168015610fb45780820380516001836020036101000a031916815260200191505b5088810386528d818151815260200191508051906020019080838360005b83811015610fed578082015181840152602081019050610fd2565b50505050905090810190601f16801561101a5780820380516001836020036101000a031916815260200191505b5088810385528c818151815260200191508051906020019080838360005b83811015611053578082015181840152602081019050611038565b50505050905090810190601f1680156110805780820380516001836020036101000a031916815260200191505b5088810384528b818151815260200191508051906020019080838360005b838110156110b957808201518184015260208101905061109e565b50505050905090810190601f1680156110e65780820380516001836020036101000a031916815260200191505b5088810383528a818151815260200191508051906020019080838360005b8381101561111f578082015181840152602081019050611104565b50505050905090810190601f16801561114c5780820380516001836020036101000a031916815260200191505b50888103825289818151815260200191508051906020019080838360005b8381101561118557808201518184015260208101905061116a565b50505050905090810190601f1680156111b25780820380516001836020036101000a031916815260200191505b509e50505050505050505050505050505060405180910390f35b60006001826040518082805190602001908083835b6020831061120457805182526020820191506020810190506020830392506111e1565b6001836020036101000a038019825116818451168082178552505050505050905001915050908152602001604051809103902060050160006101000a81548160ff02191690831515021790555050565b6001846040518082805190602001908083835b6020831061128a5780518252602082019150602081019050602083039250611267565b6001836020036101000a038019825116818451168082178552505050505050905001915050908152602001604051809103902060050160009054906101000a900460ff16611469577f069eb54d108cf3b71798bdcd409bd00e9437145cdac80333231ca0b3b9bbf3018686866040518080602001806020018060200180602001858103855288818151815260200191508051906020019080838360005b83811015611342578082015181840152602081019050611327565b50505050905090810190601f16801561136f5780820380516001836020036101000a031916815260200191505b50858103845287818151815260200191508051906020019080838360005b838110156113a857808201518184015260208101905061138d565b50505050905090810190601f1680156113d55780820380516001836020036101000a031916815260200191505b50858103835286818151815260200191508051906020019080838360005b8381101561140e5780820151818401526020810190506113f3565b50505050905090810190601f16801561143b5780820380516001836020036101000a031916815260200191505b508581038252602e815260200180613710602e913960400197505050505050505060405180910390a1611f16565b6003866040518082805190602001908083835b6020831061149f578051825260208201915060208101905060208303925061147c565b6001836020036101000a0380198251168184511680821785525050505050509050019150509081526020016040518091039020846040518082805190602001908083835b6020831061150657805182526020820191506020810190506020830392506114e3565b6001836020036101000a038019825116818451168082178552505050505050905001915050908152602001604051809103902060009054906101000a900460ff166116e2577f069eb54d108cf3b71798bdcd409bd00e9437145cdac80333231ca0b3b9bbf3018686866040518080602001806020018060200180602001858103855288818151815260200191508051906020019080838360005b838110156115bb5780820151818401526020810190506115a0565b50505050905090810190601f1680156115e85780820380516001836020036101000a031916815260200191505b50858103845287818151815260200191508051906020019080838360005b83811015611621578082015181840152602081019050611606565b50505050905090810190601f16801561164e5780820380516001836020036101000a031916815260200191505b50858103835286818151815260200191508051906020019080838360005b8381101561168757808201518184015260208101905061166c565b50505050905090810190601f1680156116b45780820380516001836020036101000a031916815260200191505b50858103825260298152602001806136e76029913960400197505050505050505060405180910390a1611f16565b6040518061010001604052808281526020016001866040518082805190602001908083835b6020831061172a5780518252602082019150602081019050602083039250611707565b6001836020036101000a03801982511681845116808217855250505050505090500191505090815260200160405180910390206006018054600181600116156101000203166002900480601f0160208091040260200160405190810160405280929190818152602001828054600181600116156101000203166002900480156117f45780601f106117c9576101008083540402835291602001916117f4565b820191906000526020600020905b8154815290600101906020018083116117d757829003601f168201915b50505050508152602001878152602001868152602001858152602001848152602001838152602001600115158152506002826040518082805190602001908083835b602083106118595780518252602082019150602081019050602083039250611836565b6001836020036101000a038019825116818451168082178552505050505050905001915050908152602001604051809103902060008201518160000190805190602001906118a89291906135c1565b5060208201518160010190805190602001906118c59291906135c1565b5060408201518160020190805190602001906118e29291906135c1565b5060608201518160030190805190602001906118ff9291906135c1565b50608082015181600401908051906020019061191c9291906135c1565b5060a08201518160050190805190602001906119399291906135c1565b5060c08201518160060190805190602001906119569291906135c1565b5060e08201518160070160006101000a81548160ff021916908315150217905550905050600060026001866040518082805190602001908083835b602083106119b45780518252602082019150602081019050602083039250611991565b6001836020036101000a03801982511681845116808217855250505050505090500191505090815260200160405180910390206006016040518082805460018160011615610100020316600290048015611a455780601f10611a23576101008083540402835291820191611a45565b820191906000526020600020905b815481529060010190602001808311611a31575b5050915050908152602001604051809103902060070160006101000a81548160ff021916908315150217905550806001856040518082805190602001908083835b60208310611aa95780518252602082019150602081019050602083039250611a86565b6001836020036101000a03801982511681845116808217855250505050505090500191505090815260200160405180910390206006019080519060200190611af2929190613641565b5060006003876040518082805190602001908083835b60208310611b2b5780518252602082019150602081019050602083039250611b08565b6001836020036101000a0380198251168184511680821785525050505050509050019150509081526020016040518091039020856040518082805190602001908083835b60208310611b925780518252602082019150602081019050602083039250611b6f565b6001836020036101000a038019825116818451168082178552505050505050905001915050908152602001604051809103902060006101000a81548160ff02191690831515021790555060016003866040518082805190602001908083835b60208310611c145780518252602082019150602081019050602083039250611bf1565b6001836020036101000a0380198251168184511680821785525050505050509050019150509081526020016040518091039020856040518082805190602001908083835b60208310611c7b5780518252602082019150602081019050602083039250611c58565b6001836020036101000a038019825116818451168082178552505050505050905001915050908152602001604051809103902060006101000a81548160ff0219169083151502179055507f880fd471c916a525c0f5425a91bc81ae08198a0e3352682e7402555d4f22e34a868686858560405180806020018060200180602001806020018060200186810386528b818151815260200191508051906020019080838360005b83811015611d3b578082015181840152602081019050611d20565b50505050905090810190601f168015611d685780820380516001836020036101000a031916815260200191505b5086810385528a818151815260200191508051906020019080838360005b83811015611da1578082015181840152602081019050611d86565b50505050905090810190601f168015611dce5780820380516001836020036101000a031916815260200191505b50868103845289818151815260200191508051906020019080838360005b83811015611e07578082015181840152602081019050611dec565b50505050905090810190601f168015611e345780820380516001836020036101000a031916815260200191505b50868103835288818151815260200191508051906020019080838360005b83811015611e6d578082015181840152602081019050611e52565b50505050905090810190601f168015611e9a5780820380516001836020036101000a031916815260200191505b50868103825287818151815260200191508051906020019080838360005b83811015611ed3578082015181840152602081019050611eb8565b50505050905090810190601f168015611f005780820380516001836020036101000a031916815260200191505b509a505050505050505050505060405180910390a15b505050505050565b60006003836040518082805190602001908083835b60208310611f565780518252602082019150602081019050602083039250611f33565b6001836020036101000a0380198251168184511680821785525050505050509050019150509081526020016040518091039020826040518082805190602001908083835b60208310611fbd5780518252602082019150602081019050602083039250611f9a565b6001836020036101000a038019825116818451168082178552505050505050905001915050908152602001604051809103902060009054906101000a900460ff161561200c5760019050612011565b600090505b92915050565b606060008054600181600116156101000203166002900480601f0160208091040260200160405190810160405280929190818152602001828054600181600116156101000203166002900480156120af5780601f10612084576101008083540402835291602001916120af565b820191906000526020600020905b81548152906001019060200180831161209257829003601f168201915b5050505050905090565b60608060608060608060006001886040518082805190602001908083835b602083106120fa57805182526020820191506020810190506020830392506120d7565b6001836020036101000a03801982511681845116808217855250505050505090500191505090815260200160405180910390206000016001896040518082805190602001908083835b602083106121665780518252602082019150602081019050602083039250612143565b6001836020036101000a038019825116818451168082178552505050505050905001915050908152602001604051809103902060010160018a6040518082805190602001908083835b602083106121d257805182526020820191506020810190506020830392506121af565b6001836020036101000a038019825116818451168082178552505050505050905001915050908152602001604051809103902060020160018b6040518082805190602001908083835b6020831061223e578051825260208201915060208101905060208303925061221b565b6001836020036101000a038019825116818451168082178552505050505050905001915050908152602001604051809103902060030160018c6040518082805190602001908083835b602083106122aa5780518252602082019150602081019050602083039250612287565b6001836020036101000a038019825116818451168082178552505050505050905001915050908152602001604051809103902060040160018d6040518082805190602001908083835b6020831061231657805182526020820191506020810190506020830392506122f3565b6001836020036101000a038019825116818451168082178552505050505050905001915050908152602001604051809103902060060160018e6040518082805190602001908083835b60208310612382578051825260208201915060208101905060208303925061235f565b6001836020036101000a038019825116818451168082178552505050505050905001915050908152602001604051809103902060050160009054906101000a900460ff16868054600181600116156101000203166002900480601f01602080910402602001604051908101604052809291908181526020018280546001816001161561010002031660029004801561245b5780601f106124305761010080835404028352916020019161245b565b820191906000526020600020905b81548152906001019060200180831161243e57829003601f168201915b50505050509650858054600181600116156101000203166002900480601f0160208091040260200160405190810160405280929190818152602001828054600181600116156101000203166002900480156124f75780601f106124cc576101008083540402835291602001916124f7565b820191906000526020600020905b8154815290600101906020018083116124da57829003601f168201915b50505050509550848054600181600116156101000203166002900480601f0160208091040260200160405190810160405280929190818152602001828054600181600116156101000203166002900480156125935780601f1061256857610100808354040283529160200191612593565b820191906000526020600020905b81548152906001019060200180831161257657829003601f168201915b50505050509450838054600181600116156101000203166002900480601f01602080910402602001604051908101604052809291908181526020018280546001816001161561010002031660029004801561262f5780601f106126045761010080835404028352916020019161262f565b820191906000526020600020905b81548152906001019060200180831161261257829003601f168201915b50505050509350828054600181600116156101000203166002900480601f0160208091040260200160405190810160405280929190818152602001828054600181600116156101000203166002900480156126cb5780601f106126a0576101008083540402835291602001916126cb565b820191906000526020600020905b8154815290600101906020018083116126ae57829003601f168201915b50505050509250818054600181600116156101000203166002900480601f0160208091040260200160405190810160405280929190818152602001828054600181600116156101000203166002900480156127675780601f1061273c57610100808354040283529160200191612767565b820191906000526020600020905b81548152906001019060200180831161274a57829003601f168201915b505050505091509650965096509650965096509650919395979092949650565b806000908051906020019061279d929190613641565b5050565b60006001866040518082805190602001908083835b602083106127d957805182526020820191506020810190506020830392506127b6565b6001836020036101000a038019825116818451168082178552505050505050905001915050908152602001604051809103902060000180546001816001161561010002031660029004905014612903577fc06c201e2ec39a81a86e4d01f415f641c945498a7559b4313205af8c976742f885604051808060200180602001838103835284818151815260200191508051906020019080838360005b8381101561288f578082015181840152602081019050612874565b50505050905090810190601f1680156128bc5780820380516001836020036101000a031916815260200191505b508381038252601d8152602001807f59612065786973746520656c2070616761726520636f6e20656c204964000000815250602001935050505060405180910390a1612e5e565b6040518060e001604052808681526020018581526020018481526020018381526020018281526020016001151581526020016040518060400160405280600481526020017f6e756c6c000000000000000000000000000000000000000000000000000000008152508152506001866040518082805190602001908083835b602083106129a45780518252602082019150602081019050602083039250612981565b6001836020036101000a038019825116818451168082178552505050505050905001915050908152602001604051809103902060008201518160000190805190602001906129f39291906135c1565b506020820151816001019080519060200190612a109291906135c1565b506040820151816002019080519060200190612a2d9291906135c1565b506060820151816003019080519060200190612a4a9291906135c1565b506080820151816004019080519060200190612a679291906135c1565b5060a08201518160050160006101000a81548160ff02191690831515021790555060c0820151816006019080519060200190612aa49291906135c1565b5090505060016003836040518082805190602001908083835b60208310612ae05780518252602082019150602081019050602083039250612abd565b6001836020036101000a0380198251168184511680821785525050505050509050019150509081526020016040518091039020866040518082805190602001908083835b60208310612b475780518252602082019150602081019050602083039250612b24565b6001836020036101000a038019825116818451168082178552505050505050905001915050908152602001604051809103902060006101000a81548160ff02191690831515021790555060016004846040518082805190602001908083835b60208310612bc95780518252602082019150602081019050602083039250612ba6565b6001836020036101000a0380198251168184511680821785525050505050509050019150509081526020016040518091039020866040518082805190602001908083835b60208310612c305780518252602082019150602081019050602083039250612c0d565b6001836020036101000a038019825116818451168082178552505050505050905001915050908152602001604051809103902060006101000a81548160ff0219169083151502179055507f2c6097b2aac8c0990d89071cfae40ae87f354ee79288b32e65f722b88bdcb2f8858484876040518080602001806020018060200180602001858103855289818151815260200191508051906020019080838360005b83811015612ceb578082015181840152602081019050612cd0565b50505050905090810190601f168015612d185780820380516001836020036101000a031916815260200191505b50858103845288818151815260200191508051906020019080838360005b83811015612d51578082015181840152602081019050612d36565b50505050905090810190601f168015612d7e5780820380516001836020036101000a031916815260200191505b50858103835287818151815260200191508051906020019080838360005b83811015612db7578082015181840152602081019050612d9c565b50505050905090810190601f168015612de45780820380516001836020036101000a031916815260200191505b50858103825286818151815260200191508051906020019080838360005b83811015612e1d578082015181840152602081019050612e02565b50505050905090810190601f168015612e4a5780820380516001836020036101000a031916815260200191505b509850505050505050505060405180910390a15b5050505050565b60608060608060608060606002886040518082805190602001908083835b60208310612ea65780518252602082019150602081019050602083039250612e83565b6001836020036101000a03801982511681845116808217855250505050505090500191505090815260200160405180910390206000016002896040518082805190602001908083835b60208310612f125780518252602082019150602081019050602083039250612eef565b6001836020036101000a038019825116818451168082178552505050505050905001915050908152602001604051809103902060010160028a6040518082805190602001908083835b60208310612f7e5780518252602082019150602081019050602083039250612f5b565b6001836020036101000a038019825116818451168082178552505050505050905001915050908152602001604051809103902060020160028b6040518082805190602001908083835b60208310612fea5780518252602082019150602081019050602083039250612fc7565b6001836020036101000a038019825116818451168082178552505050505050905001915050908152602001604051809103902060030160028c6040518082805190602001908083835b602083106130565780518252602082019150602081019050602083039250613033565b6001836020036101000a038019825116818451168082178552505050505050905001915050908152602001604051809103902060040160028d6040518082805190602001908083835b602083106130c2578051825260208201915060208101905060208303925061309f565b6001836020036101000a038019825116818451168082178552505050505050905001915050908152602001604051809103902060050160028e6040518082805190602001908083835b6020831061312e578051825260208201915060208101905060208303925061310b565b6001836020036101000a0380198251168184511680821785525050505050509050019150509081526020016040518091039020600601868054600181600116156101000203166002900480601f0160208091040260200160405190810160405280929190818152602001828054600181600116156101000203166002900480156131f95780601f106131ce576101008083540402835291602001916131f9565b820191906000526020600020905b8154815290600101906020018083116131dc57829003601f168201915b50505050509650858054600181600116156101000203166002900480601f0160208091040260200160405190810160405280929190818152602001828054600181600116156101000203166002900480156132955780601f1061326a57610100808354040283529160200191613295565b820191906000526020600020905b81548152906001019060200180831161327857829003601f168201915b50505050509550848054600181600116156101000203166002900480601f0160208091040260200160405190810160405280929190818152602001828054600181600116156101000203166002900480156133315780601f1061330657610100808354040283529160200191613331565b820191906000526020600020905b81548152906001019060200180831161331457829003601f168201915b50505050509450838054600181600116156101000203166002900480601f0160208091040260200160405190810160405280929190818152602001828054600181600116156101000203166002900480156133cd5780601f106133a2576101008083540402835291602001916133cd565b820191906000526020600020905b8154815290600101906020018083116133b057829003601f168201915b50505050509350828054600181600116156101000203166002900480601f0160208091040260200160405190810160405280929190818152602001828054600181600116156101000203166002900480156134695780601f1061343e57610100808354040283529160200191613469565b820191906000526020600020905b81548152906001019060200180831161344c57829003601f168201915b50505050509250818054600181600116156101000203166002900480601f0160208091040260200160405190810160405280929190818152602001828054600181600116156101000203166002900480156135055780601f106134da57610100808354040283529160200191613505565b820191906000526020600020905b8154815290600101906020018083116134e857829003601f168201915b50505050509150808054600181600116156101000203166002900480601f0160208091040260200160405190810160405280929190818152602001828054600181600116156101000203166002900480156135a15780601f10613576576101008083540402835291602001916135a1565b820191906000526020600020905b81548152906001019060200180831161358457829003601f168201915b505050505090509650965096509650965096509650919395979092949650565b828054600181600116156101000203166002900490600052602060002090601f016020900481019282601f1061360257805160ff1916838001178555613630565b82800160010185558215613630579182015b8281111561362f578251825591602001919060010190613614565b5b50905061363d91906136c1565b5090565b828054600181600116156101000203166002900490600052602060002090601f016020900481019282601f1061368257805160ff19168380011785556136b0565b828001600101855582156136b0579182015b828111156136af578251825591602001919060010190613694565b5b5090506136bd91906136c1565b5090565b6136e391905b808211156136df5760008160009055506001016136c7565b5090565b9056fe456c20656e646f73616e7465206e6f207469656e6520656c2070616761726520636f6e20656c2069644e6f2065786973746520656c2070616761726520636f6e20656c2069642c206f207961206675652070616761646fa265627a7a723158204f75a36f7efa346f69da3aaeeaa147828c66fd5967afd571fe00e7f33dfde94364736f6c63430005100032",
  "source": "// pragma solidity ^0.5.16;\r\n// pragma solidity ^0.6.4;\r\npragma solidity >=0.5.16 <0.7.0;\r\n\r\n\r\ncontract PagareTracker {\r\n    string id = \"aaa\";\r\n\r\n    function setId(string memory serial) public {\r\n        id = serial;\r\n    }\r\n\r\n    function getId() public view returns (string memory) {\r\n        return id;\r\n    }\r\n\r\n    //Info tiene las variables: fecha_creacion,fecha_vencimiento,fecha_expiracion,lugar_creacion,lugar_cumplimiento,firma\r\n    struct Pagare {\r\n        string _id;\r\n        string valor;\r\n        string id_deudor;\r\n        string id_acreedor;\r\n        string info;\r\n        bool pendiente;\r\n        string ultimo_endoso;\r\n    }\r\n\r\n    struct Endoso {\r\n        string _id;\r\n        string id_anterior_endoso;\r\n        string id_endosante;\r\n        string id_endosatario;\r\n        string id_pagare;\r\n        string fecha;\r\n        string firma;\r\n        bool es_ultimo_endoso;\r\n    }\r\n\r\n    mapping(string => Pagare) private pagareStore;\r\n\r\n    mapping(string => Endoso) private endosoStore;\r\n\r\n    //[id_acreedor][id_pagare]\r\n    mapping(string => mapping(string => bool)) private acreedorStore;\r\n\r\n    //[id_deudor][id_pagare]\r\n    mapping(string => mapping(string => bool)) private deudorStore;\r\n\r\n    event PagareCreate(\r\n        string _id,\r\n        string deudor_id,\r\n        string acreedor_id,\r\n        string valor\r\n    );\r\n    event RejectCreate(string _id, string message);\r\n    event AcceptEndoso(string from, string to, string _id, string firma, string id_endoso);\r\n    event RejectEndoso(string from, string to, string _id, string message);\r\n\r\n    function createPagare(\r\n        string memory _id,\r\n        string memory valor,\r\n        string memory id_deudor,\r\n        string memory id_acreedor,\r\n        string memory info\r\n    ) public {\r\n        if (!(bytes(pagareStore[_id]._id).length == 0)) {\r\n            emit RejectCreate(_id, \"Ya existe el pagare con el Id\");\r\n            return;\r\n        }\r\n        pagareStore[_id] = Pagare(\r\n            _id,\r\n            valor,\r\n            id_deudor,\r\n            id_acreedor,\r\n            info,\r\n            true,\r\n            \"null\"\r\n        );\r\n        acreedorStore[id_acreedor][_id] = true;\r\n        deudorStore[id_deudor][_id] = true;\r\n        emit PagareCreate(_id, id_deudor, id_acreedor, valor);\r\n    }\r\n\r\n    function endosarPagare(\r\n        string memory id_endosante,\r\n        string memory id_endosatario,\r\n        string memory id_pagare,\r\n        string memory fecha,\r\n        string memory firma,\r\n        string memory id_endoso\r\n    ) public {\r\n        if (!pagareStore[id_pagare].pendiente) {\r\n            emit RejectEndoso(\r\n                id_endosante,\r\n                id_endosatario,\r\n                id_pagare,\r\n                \"No existe el pagare con el id, o ya fue pagado\"\r\n            );\r\n            return;\r\n        }\r\n\r\n        if (!acreedorStore[id_endosante][id_pagare]) {\r\n            emit RejectEndoso(\r\n                id_endosante,\r\n                id_endosatario,\r\n                id_pagare,\r\n                \"El endosante no tiene el pagare con el id\"\r\n            );\r\n            return;\r\n        }\r\n        endosoStore[id_endoso] = Endoso(\r\n            id_endoso,\r\n            pagareStore[id_pagare].ultimo_endoso,\r\n            id_endosante,\r\n            id_endosatario,\r\n            id_pagare,\r\n            fecha,\r\n            firma,\r\n            true\r\n        );\r\n        endosoStore[pagareStore[id_pagare].ultimo_endoso].es_ultimo_endoso = false;\r\n        pagareStore[id_pagare].ultimo_endoso = id_endoso;\r\n        // pagareStore[id_pagare].id_acreedor = id_endosatario;\r\n        acreedorStore[id_endosante][id_pagare] = false;\r\n        acreedorStore[id_endosatario][id_pagare] = true;\r\n        emit AcceptEndoso(id_endosante, id_endosatario, id_pagare, firma, id_endoso);\r\n    }\r\n\r\n    function getPagareById(string memory _id)\r\n        public\r\n        view\r\n        returns (\r\n            string memory,\r\n            string memory,\r\n            string memory,\r\n            string memory,\r\n            string memory,\r\n            string memory,\r\n            bool\r\n        )\r\n    {\r\n        // string _id, string valor, string id_deudor, string id_acreedor, string info, string firma\r\n        return (\r\n            pagareStore[_id]._id,\r\n            pagareStore[_id].valor,\r\n            pagareStore[_id].id_deudor,\r\n            pagareStore[_id].id_acreedor,\r\n            pagareStore[_id].info,\r\n            pagareStore[_id].ultimo_endoso,\r\n            pagareStore[_id].pendiente\r\n        );\r\n    }\r\n\r\n    function getEndosoById(string memory _id)\r\n        public\r\n        view\r\n        returns (\r\n            string memory,\r\n            string memory,\r\n            string memory,\r\n            string memory,\r\n            string memory,\r\n            string memory,\r\n            string memory\r\n        )\r\n    {\r\n        return (\r\n            endosoStore[_id]._id,\r\n            endosoStore[_id].id_anterior_endoso,\r\n            endosoStore[_id].id_endosante,\r\n            endosoStore[_id].id_endosatario,\r\n            endosoStore[_id].id_pagare,\r\n            endosoStore[_id].fecha,\r\n            endosoStore[_id].firma\r\n        );\r\n    }\r\n\r\n    function isOwnerOf(string memory owner, string memory _id)\r\n        public\r\n        view\r\n        returns (bool)\r\n    {\r\n        if (acreedorStore[owner][_id]) {\r\n            return true;\r\n        }\r\n\r\n        return false;\r\n    }\r\n\r\n    function marcarPagado(string memory _id) public {\r\n        pagareStore[_id].pendiente = false;\r\n    }\r\n}\r\n",
  "sourcePath": "C:\\Users\\jdzga\\tesis\\back-end\\truffle stuff\\contracts\\pagareTracker.sol",
  "compiler": {
    "name": "solc",
    "version": "0.5.16+commit.9c3226ce.Emscripten.clang"
  },
  "schemaVersion": "3.0.23",
  "updatedAt": "2020-04-15T17:39:05.156Z",
  "networkType": "ethereum",
  "devdoc": {
    "methods": {}
  },
  "userdoc": {
    "methods": {}
  }
}