{
  "contractName": "PagareTracker",
  "abi": [
    {
      "anonymous": false,
      "inputs": [
        {
          "indexed": false,
          "internalType": "string",
          "name": "_id",
          "type": "string"
        },
        {
          "indexed": false,
          "internalType": "string",
          "name": "deudor_id",
          "type": "string"
        },
        {
          "indexed": false,
          "internalType": "string",
          "name": "acreedor_id",
          "type": "string"
        },
        {
          "indexed": false,
          "internalType": "string",
          "name": "valor",
          "type": "string"
        }
      ],
      "name": "PagareCreate",
      "type": "event"
    },
    {
      "anonymous": false,
      "inputs": [
        {
          "indexed": false,
          "internalType": "string",
          "name": "from",
          "type": "string"
        },
        {
          "indexed": false,
          "internalType": "string",
          "name": "to",
          "type": "string"
        },
        {
          "indexed": false,
          "internalType": "string",
          "name": "_id",
          "type": "string"
        }
      ],
      "name": "PagareEndoso",
      "type": "event"
    },
    {
      "anonymous": false,
      "inputs": [
        {
          "indexed": false,
          "internalType": "string",
          "name": "_id",
          "type": "string"
        },
        {
          "indexed": false,
          "internalType": "string",
          "name": "message",
          "type": "string"
        }
      ],
      "name": "RejectCreate",
      "type": "event"
    },
    {
      "anonymous": false,
      "inputs": [
        {
          "indexed": false,
          "internalType": "string",
          "name": "from",
          "type": "string"
        },
        {
          "indexed": false,
          "internalType": "string",
          "name": "to",
          "type": "string"
        },
        {
          "indexed": false,
          "internalType": "string",
          "name": "_id",
          "type": "string"
        },
        {
          "indexed": false,
          "internalType": "string",
          "name": "message",
          "type": "string"
        }
      ],
      "name": "RejectEndoso",
      "type": "event"
    },
    {
      "constant": false,
      "inputs": [
        {
          "internalType": "string",
          "name": "serial",
          "type": "string"
        }
      ],
      "name": "setId",
      "outputs": [],
      "payable": false,
      "stateMutability": "nonpayable",
      "type": "function"
    },
    {
      "constant": true,
      "inputs": [],
      "name": "getId",
      "outputs": [
        {
          "internalType": "string",
          "name": "",
          "type": "string"
        }
      ],
      "payable": false,
      "stateMutability": "view",
      "type": "function"
    },
    {
      "constant": false,
      "inputs": [
        {
          "internalType": "string",
          "name": "_id",
          "type": "string"
        },
        {
          "internalType": "string",
          "name": "valor",
          "type": "string"
        },
        {
          "internalType": "string",
          "name": "id_deudor",
          "type": "string"
        },
        {
          "internalType": "string",
          "name": "id_acredor",
          "type": "string"
        },
        {
          "internalType": "string",
          "name": "info",
          "type": "string"
        },
        {
          "internalType": "string",
          "name": "firma",
          "type": "string"
        }
      ],
      "name": "createPagare",
      "outputs": [],
      "payable": false,
      "stateMutability": "nonpayable",
      "type": "function"
    },
    {
      "constant": false,
      "inputs": [
        {
          "internalType": "string",
          "name": "id_endosante",
          "type": "string"
        },
        {
          "internalType": "string",
          "name": "id_endosatario",
          "type": "string"
        },
        {
          "internalType": "string",
          "name": "_id",
          "type": "string"
        }
      ],
      "name": "transferPagare",
      "outputs": [],
      "payable": false,
      "stateMutability": "nonpayable",
      "type": "function"
    },
    {
      "constant": true,
      "inputs": [
        {
          "internalType": "string",
          "name": "_id",
          "type": "string"
        }
      ],
      "name": "getPagareById",
      "outputs": [
        {
          "internalType": "string",
          "name": "",
          "type": "string"
        },
        {
          "internalType": "string",
          "name": "",
          "type": "string"
        },
        {
          "internalType": "string",
          "name": "",
          "type": "string"
        },
        {
          "internalType": "string",
          "name": "",
          "type": "string"
        },
        {
          "internalType": "string",
          "name": "",
          "type": "string"
        },
        {
          "internalType": "string",
          "name": "",
          "type": "string"
        }
      ],
      "payable": false,
      "stateMutability": "view",
      "type": "function"
    },
    {
      "constant": true,
      "inputs": [
        {
          "internalType": "string",
          "name": "owner",
          "type": "string"
        },
        {
          "internalType": "string",
          "name": "_id",
          "type": "string"
        }
      ],
      "name": "isOwnerOf",
      "outputs": [
        {
          "internalType": "bool",
          "name": "",
          "type": "bool"
        }
      ],
      "payable": false,
      "stateMutability": "view",
      "type": "function"
    }
  ],
  "bytecode": "0x608060405234801561001057600080fd5b506120a9806100206000396000f3fe608060405234801561001057600080fd5b50600436106100625760003560e01c80634c4e8582146100675780635d1ca631146101d157806364cbe8e1146102545780638448101d146105a457806387e4396c1461078d5780639168278c14610848575b600080fd5b6101b76004803603604081101561007d57600080fd5b810190808035906020019064010000000081111561009a57600080fd5b8201836020820111156100ac57600080fd5b803590602001918460018302840111640100000000831117156100ce57600080fd5b91908080601f016020809104026020016040519081016040528093929190818152602001838380828437600081840152601f19601f8201169050808301925050505050505091929192908035906020019064010000000081111561013157600080fd5b82018360208201111561014357600080fd5b8035906020019184600183028401116401000000008311171561016557600080fd5b91908080601f016020809104026020016040519081016040528093929190818152602001838380828437600081840152601f19601f820116905080830192505050505050509192919290505050610bf6565b604051808215151515815260200191505060405180910390f35b6101d9610cef565b6040518080602001828103825283818151815260200191508051906020019080838360005b838110156102195780820151818401526020810190506101fe565b50505050905090810190601f1680156102465780820380516001836020036101000a031916815260200191505b509250505060405180910390f35b61030d6004803603602081101561026a57600080fd5b810190808035906020019064010000000081111561028757600080fd5b82018360208201111561029957600080fd5b803590602001918460018302840111640100000000831117156102bb57600080fd5b91908080601f016020809104026020016040519081016040528093929190818152602001838380828437600081840152601f19601f820116905080830192505050505050509192919290505050610d91565b6040518080602001806020018060200180602001806020018060200187810387528d818151815260200191508051906020019080838360005b83811015610361578082015181840152602081019050610346565b50505050905090810190601f16801561038e5780820380516001836020036101000a031916815260200191505b5087810386528c818151815260200191508051906020019080838360005b838110156103c75780820151818401526020810190506103ac565b50505050905090810190601f1680156103f45780820380516001836020036101000a031916815260200191505b5087810385528b818151815260200191508051906020019080838360005b8381101561042d578082015181840152602081019050610412565b50505050905090810190601f16801561045a5780820380516001836020036101000a031916815260200191505b5087810384528a818151815260200191508051906020019080838360005b83811015610493578082015181840152602081019050610478565b50505050905090810190601f1680156104c05780820380516001836020036101000a031916815260200191505b50878103835289818151815260200191508051906020019080838360005b838110156104f95780820151818401526020810190506104de565b50505050905090810190601f1680156105265780820380516001836020036101000a031916815260200191505b50878103825288818151815260200191508051906020019080838360005b8381101561055f578082015181840152602081019050610544565b50505050905090810190601f16801561058c5780820380516001836020036101000a031916815260200191505b509c5050505050505050505050505060405180910390f35b61078b600480360360608110156105ba57600080fd5b81019080803590602001906401000000008111156105d757600080fd5b8201836020820111156105e957600080fd5b8035906020019184600183028401116401000000008311171561060b57600080fd5b91908080601f016020809104026020016040519081016040528093929190818152602001838380828437600081840152601f19601f8201169050808301925050505050505091929192908035906020019064010000000081111561066e57600080fd5b82018360208201111561068057600080fd5b803590602001918460018302840111640100000000831117156106a257600080fd5b91908080601f016020809104026020016040519081016040528093929190818152602001838380828437600081840152601f19601f8201169050808301925050505050505091929192908035906020019064010000000081111561070557600080fd5b82018360208201111561071757600080fd5b8035906020019184600183028401116401000000008311171561073957600080fd5b91908080601f016020809104026020016040519081016040528093929190818152602001838380828437600081840152601f19601f8201169050808301925050505050505091929192905050506111dd565b005b610846600480360360208110156107a357600080fd5b81019080803590602001906401000000008111156107c057600080fd5b8201836020820111156107d257600080fd5b803590602001918460018302840111640100000000831117156107f457600080fd5b91908080601f016020809104026020016040519081016040528093929190818152602001838380828437600081840152601f19601f8201169050808301925050505050505091929192905050506119d6565b005b610bf4600480360360c081101561085e57600080fd5b810190808035906020019064010000000081111561087b57600080fd5b82018360208201111561088d57600080fd5b803590602001918460018302840111640100000000831117156108af57600080fd5b91908080601f016020809104026020016040519081016040528093929190818152602001838380828437600081840152601f19601f8201169050808301925050505050505091929192908035906020019064010000000081111561091257600080fd5b82018360208201111561092457600080fd5b8035906020019184600183028401116401000000008311171561094657600080fd5b91908080601f016020809104026020016040519081016040528093929190818152602001838380828437600081840152601f19601f820116905080830192505050505050509192919290803590602001906401000000008111156109a957600080fd5b8201836020820111156109bb57600080fd5b803590602001918460018302840111640100000000831117156109dd57600080fd5b91908080601f016020809104026020016040519081016040528093929190818152602001838380828437600081840152601f19601f82011690508083019250505050505050919291929080359060200190640100000000811115610a4057600080fd5b820183602082011115610a5257600080fd5b80359060200191846001830284011164010000000083111715610a7457600080fd5b91908080601f016020809104026020016040519081016040528093929190818152602001838380828437600081840152601f19601f82011690508083019250505050505050919291929080359060200190640100000000811115610ad757600080fd5b820183602082011115610ae957600080fd5b80359060200191846001830284011164010000000083111715610b0b57600080fd5b91908080601f016020809104026020016040519081016040528093929190818152602001838380828437600081840152601f19601f82011690508083019250505050505050919291929080359060200190640100000000811115610b6e57600080fd5b820183602082011115610b8057600080fd5b80359060200191846001830284011164010000000083111715610ba257600080fd5b91908080601f016020809104026020016040519081016040528093929190818152602001838380828437600081840152601f19601f8201169050808301925050505050505091929192905050506119f0565b005b60006002836040518082805190602001908083835b60208310610c2e5780518252602082019150602081019050602083039250610c0b565b6001836020036101000a0380198251168184511680821785525050505050509050019150509081526020016040518091039020826040518082805190602001908083835b60208310610c955780518252602082019150602081019050602083039250610c72565b6001836020036101000a038019825116818451168082178552505050505050905001915050908152602001604051809103902060009054906101000a900460ff1615610ce45760019050610ce9565b600090505b92915050565b606060008054600181600116156101000203166002900480601f016020809104026020016040519081016040528092919081815260200182805460018160011615610100020316600290048015610d875780601f10610d5c57610100808354040283529160200191610d87565b820191906000526020600020905b815481529060010190602001808311610d6a57829003601f168201915b5050505050905090565b60608060608060608060006001886040518082805190602001908083835b60208310610dd25780518252602082019150602081019050602083039250610daf565b6001836020036101000a03801982511681845116808217855250505050505090500191505090815260200160405180910390209050806000018160010182600201836003018460040185600501858054600181600116156101000203166002900480601f016020809104026020016040519081016040528092919081815260200182805460018160011615610100020316600290048015610eb45780601f10610e8957610100808354040283529160200191610eb4565b820191906000526020600020905b815481529060010190602001808311610e9757829003601f168201915b50505050509550848054600181600116156101000203166002900480601f016020809104026020016040519081016040528092919081815260200182805460018160011615610100020316600290048015610f505780601f10610f2557610100808354040283529160200191610f50565b820191906000526020600020905b815481529060010190602001808311610f3357829003601f168201915b50505050509450838054600181600116156101000203166002900480601f016020809104026020016040519081016040528092919081815260200182805460018160011615610100020316600290048015610fec5780601f10610fc157610100808354040283529160200191610fec565b820191906000526020600020905b815481529060010190602001808311610fcf57829003601f168201915b50505050509350828054600181600116156101000203166002900480601f0160208091040260200160405190810160405280929190818152602001828054600181600116156101000203166002900480156110885780601f1061105d57610100808354040283529160200191611088565b820191906000526020600020905b81548152906001019060200180831161106b57829003601f168201915b50505050509250818054600181600116156101000203166002900480601f0160208091040260200160405190810160405280929190818152602001828054600181600116156101000203166002900480156111245780601f106110f957610100808354040283529160200191611124565b820191906000526020600020905b81548152906001019060200180831161110757829003601f168201915b50505050509150808054600181600116156101000203166002900480601f0160208091040260200160405190810160405280929190818152602001828054600181600116156101000203166002900480156111c05780601f10611195576101008083540402835291602001916111c0565b820191906000526020600020905b8154815290600101906020018083116111a357829003601f168201915b505050505090509650965096509650965096505091939550919395565b6001816040518082805190602001908083835b6020831061121357805182526020820191506020810190506020830392506111f0565b6001836020036101000a038019825116818451168082178552505050505050905001915050908152602001604051809103902060060160009054906101000a900460ff1661140f577f069eb54d108cf3b71798bdcd409bd00e9437145cdac80333231ca0b3b9bbf3018383836040518080602001806020018060200180602001858103855288818151815260200191508051906020019080838360005b838110156112cb5780820151818401526020810190506112b0565b50505050905090810190601f1680156112f85780820380516001836020036101000a031916815260200191505b50858103845287818151815260200191508051906020019080838360005b83811015611331578082015181840152602081019050611316565b50505050905090810190601f16801561135e5780820380516001836020036101000a031916815260200191505b50858103835286818151815260200191508051906020019080838360005b8381101561139757808201518184015260208101905061137c565b50505050905090810190601f1680156113c45780820380516001836020036101000a031916815260200191505b508581038252601d8152602001807f4e6f2065786973746520656c2070616761726520636f6e20656c20696400000081525060200197505050505050505060405180910390a16119d1565b6002836040518082805190602001908083835b602083106114455780518252602082019150602081019050602083039250611422565b6001836020036101000a0380198251168184511680821785525050505050509050019150509081526020016040518091039020816040518082805190602001908083835b602083106114ac5780518252602082019150602081019050602083039250611489565b6001836020036101000a038019825116818451168082178552505050505050905001915050908152602001604051809103902060009054906101000a900460ff16611688577f069eb54d108cf3b71798bdcd409bd00e9437145cdac80333231ca0b3b9bbf3018383836040518080602001806020018060200180602001858103855288818151815260200191508051906020019080838360005b83811015611561578082015181840152602081019050611546565b50505050905090810190601f16801561158e5780820380516001836020036101000a031916815260200191505b50858103845287818151815260200191508051906020019080838360005b838110156115c75780820151818401526020810190506115ac565b50505050905090810190601f1680156115f45780820380516001836020036101000a031916815260200191505b50858103835286818151815260200191508051906020019080838360005b8381101561162d578082015181840152602081019050611612565b50505050905090810190601f16801561165a5780820380516001836020036101000a031916815260200191505b508581038252602981526020018061204c6029913960400197505050505050505060405180910390a16119d1565b60006002846040518082805190602001908083835b602083106116c0578051825260208201915060208101905060208303925061169d565b6001836020036101000a0380198251168184511680821785525050505050509050019150509081526020016040518091039020826040518082805190602001908083835b602083106117275780518252602082019150602081019050602083039250611704565b6001836020036101000a038019825116818451168082178552505050505050905001915050908152602001604051809103902060006101000a81548160ff02191690831515021790555060016002836040518082805190602001908083835b602083106117a95780518252602082019150602081019050602083039250611786565b6001836020036101000a0380198251168184511680821785525050505050509050019150509081526020016040518091039020826040518082805190602001908083835b6020831061181057805182526020820191506020810190506020830392506117ed565b6001836020036101000a038019825116818451168082178552505050505050905001915050908152602001604051809103902060006101000a81548160ff0219169083151502179055507fc67095cc426e6514d5ffee9492ef0253fe9e69d1ff1e5912681d7531bf38bb6283838360405180806020018060200180602001848103845287818151815260200191508051906020019080838360005b838110156118c65780820151818401526020810190506118ab565b50505050905090810190601f1680156118f35780820380516001836020036101000a031916815260200191505b50848103835286818151815260200191508051906020019080838360005b8381101561192c578082015181840152602081019050611911565b50505050905090810190601f1680156119595780820380516001836020036101000a031916815260200191505b50848103825285818151815260200191508051906020019080838360005b83811015611992578082015181840152602081019050611977565b50505050905090810190601f1680156119bf5780820380516001836020036101000a031916815260200191505b50965050505050505060405180910390a15b505050565b80600090805190602001906119ec929190611f26565b5050565b6040518060e0016040528087815260200186815260200185815260200184815260200183815260200182815260200160011515815250600160006040518082805460018160011615610100020316600290048015611a855780601f10611a63576101008083540402835291820191611a85565b820191906000526020600020905b815481529060010190602001808311611a71575b505091505090815260200160405180910390206000820151816000019080519060200190611ab4929190611fa6565b506020820151816001019080519060200190611ad1929190611fa6565b506040820151816002019080519060200190611aee929190611fa6565b506060820151816003019080519060200190611b0b929190611fa6565b506080820151816004019080519060200190611b28929190611fa6565b5060a0820151816005019080519060200190611b45929190611fa6565b5060c08201518160060160006101000a81548160ff02191690831515021790555090505060016002846040518082805190602001908083835b60208310611ba15780518252602082019150602081019050602083039250611b7e565b6001836020036101000a0380198251168184511680821785525050505050509050019150509081526020016040518091039020876040518082805190602001908083835b60208310611c085780518252602082019150602081019050602083039250611be5565b6001836020036101000a038019825116818451168082178552505050505050905001915050908152602001604051809103902060006101000a81548160ff02191690831515021790555060016003856040518082805190602001908083835b60208310611c8a5780518252602082019150602081019050602083039250611c67565b6001836020036101000a0380198251168184511680821785525050505050509050019150509081526020016040518091039020876040518082805190602001908083835b60208310611cf15780518252602082019150602081019050602083039250611cce565b6001836020036101000a038019825116818451168082178552505050505050905001915050908152602001604051809103902060006101000a81548160ff0219169083151502179055507f2c6097b2aac8c0990d89071cfae40ae87f354ee79288b32e65f722b88bdcb2f8868585886040518080602001806020018060200180602001858103855289818151815260200191508051906020019080838360005b83811015611dac578082015181840152602081019050611d91565b50505050905090810190601f168015611dd95780820380516001836020036101000a031916815260200191505b50858103845288818151815260200191508051906020019080838360005b83811015611e12578082015181840152602081019050611df7565b50505050905090810190601f168015611e3f5780820380516001836020036101000a031916815260200191505b50858103835287818151815260200191508051906020019080838360005b83811015611e78578082015181840152602081019050611e5d565b50505050905090810190601f168015611ea55780820380516001836020036101000a031916815260200191505b50858103825286818151815260200191508051906020019080838360005b83811015611ede578082015181840152602081019050611ec3565b50505050905090810190601f168015611f0b5780820380516001836020036101000a031916815260200191505b509850505050505050505060405180910390a1505050505050565b828054600181600116156101000203166002900490600052602060002090601f016020900481019282601f10611f6757805160ff1916838001178555611f95565b82800160010185558215611f95579182015b82811115611f94578251825591602001919060010190611f79565b5b509050611fa29190612026565b5090565b828054600181600116156101000203166002900490600052602060002090601f016020900481019282601f10611fe757805160ff1916838001178555612015565b82800160010185558215612015579182015b82811115612014578251825591602001919060010190611ff9565b5b5090506120229190612026565b5090565b61204891905b8082111561204457600081600090555060010161202c565b5090565b9056fe456c20656e646f73616e7465206e6f207469656e6520656c2070616761726520636f6e20656c206964a265627a7a723158205e1267ed63c5acd6490e12ece3057839ec720d4061e399ad43b4b6a73496c05f64736f6c63430005100032",
  "source": "pragma solidity ^0.5.16;\r\n\r\n\r\ncontract PagareTracker {\r\n    string id;\r\n\r\n    function setId(string memory serial) public {\r\n        id = serial;\r\n    }\r\n\r\n    function getId() public view returns (string memory) {\r\n        return id;\r\n    }\r\n\r\n    //Info tiene las variables: fecha_creacion,fecha_vencimiento,fecha_expiracion,lugar_creacion,lugar_cumplimiento\r\n    struct Pagare {\r\n        string _id;\r\n        string valor;\r\n        string id_deudor;\r\n        string id_acredor;\r\n        string info;\r\n        string firma;\r\n        bool initialized;\r\n    }\r\n\r\n    mapping(string => Pagare) private pagareStore;\r\n\r\n    //[id_acreedor][id_pagare]\r\n    mapping(string => mapping(string => bool)) private acreedorStore;\r\n\r\n    //[id_deudor][id_pagare]\r\n    mapping(string => mapping(string => bool)) private deudorStore;\r\n\r\n    event PagareCreate(\r\n        string _id,\r\n        string deudor_id,\r\n        string acreedor_id,\r\n        string valor\r\n    );\r\n    event RejectCreate(string _id, string message);\r\n    event PagareEndoso(string from, string to, string _id);\r\n    event RejectEndoso(string from, string to, string _id, string message);\r\n\r\n    function createPagare(\r\n        string memory _id,\r\n        string memory valor,\r\n        string memory id_deudor,\r\n        string memory id_acredor,\r\n        string memory info,\r\n        string memory firma\r\n    ) public {\r\n        pagareStore[id] = Pagare(\r\n            _id,\r\n            valor,\r\n            id_deudor,\r\n            id_acredor,\r\n            info,\r\n            firma,\r\n            true\r\n        );\r\n        acreedorStore[id_acredor][_id] = true;\r\n        deudorStore[id_deudor][_id] = true;\r\n        emit PagareCreate(_id, id_deudor, id_acredor, valor);\r\n    }\r\n\r\n    function transferPagare(\r\n        string memory id_endosante,\r\n        string memory id_endosatario,\r\n        string memory _id\r\n    ) public {\r\n        if (!pagareStore[_id].initialized) {\r\n            emit RejectEndoso(\r\n                id_endosante,\r\n                id_endosatario,\r\n                _id,\r\n                \"No existe el pagare con el id\"\r\n            );\r\n            return;\r\n        }\r\n\r\n        if (!acreedorStore[id_endosante][_id]) {\r\n            emit RejectEndoso(\r\n                id_endosante,\r\n                id_endosatario,\r\n                _id,\r\n                \"El endosante no tiene el pagare con el id\"\r\n            );\r\n            return;\r\n        }\r\n\r\n        acreedorStore[id_endosante][_id] = false;\r\n        acreedorStore[id_endosatario][_id] = true;\r\n        emit PagareEndoso(id_endosante, id_endosatario, _id);\r\n    }\r\n\r\n    function getPagareById(string memory _id)\r\n        public\r\n        view\r\n        returns (string memory, string memory, string memory, string memory, string memory, string memory)\r\n    {\r\n        Pagare storage p = pagareStore[_id];\r\n        // string _id, string valor, string id_deudor, string id_acredor, string info, string firma\r\n        return (p._id, p.valor, p.id_deudor, p.id_acredor, p.info, p.firma);\r\n    }\r\n\r\n    function isOwnerOf(string memory owner, string memory _id)\r\n        public\r\n        view\r\n        returns (bool)\r\n    {\r\n        if (acreedorStore[owner][_id]) {\r\n            return true;\r\n        }\r\n\r\n        return false;\r\n    }\r\n}\r\n",
  "sourcePath": "C:\\Users\\jdzga\\tesis\\back-end\\truffle stuff\\contracts\\pagareTracker.sol",
  "compiler": {
    "name": "solc",
    "version": "0.5.16+commit.9c3226ce.Emscripten.clang"
  },
  "schemaVersion": "3.0.23",
  "updatedAt": "2020-03-30T20:59:59.151Z",
  "networkType": "ethereum",
  "devdoc": {
    "methods": {}
  },
  "userdoc": {
    "methods": {}
  }
}